{
  "_format": "hh-sol-artifact-1",
  "contractName": "Store",
  "sourceName": "contracts/Store.sol",
  "abi": [
    {
      "inputs": [
        {
          "internalType": "string",
          "name": "_version",
          "type": "string"
        }
      ],
      "stateMutability": "nonpayable",
      "type": "constructor"
    },
    {
      "anonymous": false,
      "inputs": [
        {
          "indexed": false,
          "internalType": "bytes32",
          "name": "key",
          "type": "bytes32"
        },
        {
          "indexed": false,
          "internalType": "bytes32",
          "name": "value",
          "type": "bytes32"
        }
      ],
      "name": "ItemSet",
      "type": "event"
    },
    {
      "inputs": [
        {
          "internalType": "bytes32",
          "name": "",
          "type": "bytes32"
        }
      ],
      "name": "items",
      "outputs": [
        {
          "internalType": "bytes32",
          "name": "",
          "type": "bytes32"
        }
      ],
      "stateMutability": "view",
      "type": "function"
    },
    {
      "inputs": [
        {
          "internalType": "bytes32",
          "name": "key",
          "type": "bytes32"
        },
        {
          "internalType": "bytes32",
          "name": "value",
          "type": "bytes32"
        }
      ],
      "name": "setItem",
      "outputs": [],
      "stateMutability": "nonpayable",
      "type": "function"
    },
    {
      "inputs": [],
      "name": "version",
      "outputs": [
        {
          "internalType": "string",
          "name": "",
          "type": "string"
        }
      ],
      "stateMutability": "view",
      "type": "function"
    }
  ],
  "bytecode": "0x608060405234801561001057600080fd5b506040516108f63803806108f6833981810160405281019061003291906101bd565b80600090816100419190610427565b50506104f9565b6000604051905090565b600080fd5b600080fd5b600080fd5b600080fd5b6000601f19601f8301169050919050565b7f4e487b7100000000000000000000000000000000000000000000000000000000600052604160045260246000fd5b6100af82610066565b810181811067ffffffffffffffff821117156100ce576100cd610077565b5b80604052505050565b60006100e1610048565b90506100ed82826100a6565b919050565b600067ffffffffffffffff82111561010d5761010c610077565b5b61011682610066565b9050602081019050919050565b60005b83811015610141578082015181840152602081019050610126565b60008484015250505050565b600061016061015b846100f2565b6100d7565b90508281526020810184848401111561017c5761017b610061565b5b610187848285610123565b509392505050565b600082601f8301126101a4576101a361005c565b5b81516101b484826020860161014d565b91505092915050565b6000602082840312156101d3576101d2610052565b5b600082015167ffffffffffffffff8111156101f1576101f0610057565b5b6101fd8482850161018f565b91505092915050565b600081519050919050565b7f4e487b7100000000000000000000000000000000000000000000000000000000600052602260045260246000fd5b6000600282049050600182168061025857607f821691505b60208210810361026b5761026a610211565b5b50919050565b60008190508160005260206000209050919050565b60006020601f8301049050919050565b600082821b905092915050565b6000600883026102d37fffffffffffffffffffffffffffffffffffffffffffffffffffffffffffffffff82610296565b6102dd8683610296565b95508019841693508086168417925050509392505050565b6000819050919050565b6000819050919050565b600061032461031f61031a846102f5565b6102ff565b6102f5565b9050919050565b6000819050919050565b61033e83610309565b61035261034a8261032b565b8484546102a3565b825550505050565b600090565b61036761035a565b610372818484610335565b505050565b5b818110156103965761038b60008261035f565b600181019050610378565b5050565b601f8211156103db576103ac81610271565b6103b584610286565b810160208510156103c4578190505b6103d86103d085610286565b830182610377565b50505b505050565b600082821c905092915050565b60006103fe600019846008026103e0565b1980831691505092915050565b600061041783836103ed565b9150826002028217905092915050565b61043082610206565b67ffffffffffffffff81111561044957610448610077565b5b6104538254610240565b61045e82828561039a565b600060209050601f831160018114610491576000841561047f578287015190505b610489858261040b565b8655506104f1565b601f19841661049f86610271565b60005b828110156104c7578489015182556001820191506020850194506020810190506104a2565b868310156104e457848901516104e0601f8916826103ed565b8355505b6001600288020188555050505b505050505050565b6103ee806105086000396000f3fe608060405234801561001057600080fd5b50600436106100415760003560e01c806348f343f31461004657806354fd4d5014610076578063f56256c714610094575b600080fd5b610060600480360381019061005b91906101e6565b6100b0565b60405161006d9190610222565b60405180910390f35b61007e6100c8565b60405161008b91906102cd565b60405180910390f35b6100ae60048036038101906100a991906102ef565b610156565b005b60016020528060005260406000206000915090505481565b600080546100d59061035e565b80601f01602080910402602001604051908101604052809291908181526020018280546101019061035e565b801561014e5780601f106101235761010080835404028352916020019161014e565b820191906000526020600020905b81548152906001019060200180831161013157829003601f168201915b505050505081565b8060016000848152602001908152602001600020819055507fe79e73da417710ae99aa2088575580a60415d359acfad9cdd3382d59c80281d4828260405161019f92919061038f565b60405180910390a15050565b600080fd5b6000819050919050565b6101c3816101b0565b81146101ce57600080fd5b50565b6000813590506101e0816101ba565b92915050565b6000602082840312156101fc576101fb6101ab565b5b600061020a848285016101d1565b91505092915050565b61021c816101b0565b82525050565b60006020820190506102376000830184610213565b92915050565b600081519050919050565b600082825260208201905092915050565b60005b8381101561027757808201518184015260208101905061025c565b60008484015250505050565b6000601f19601f8301169050919050565b600061029f8261023d565b6102a98185610248565b93506102b9818560208601610259565b6102c281610283565b840191505092915050565b600060208201905081810360008301526102e78184610294565b905092915050565b60008060408385031215610306576103056101ab565b5b6000610314858286016101d1565b9250506020610325858286016101d1565b9150509250929050565b7f4e487b7100000000000000000000000000000000000000000000000000000000600052602260045260246000fd5b6000600282049050600182168061037657607f821691505b6020821081036103895761038861032f565b5b50919050565b60006040820190506103a46000830185610213565b6103b16020830184610213565b939250505056fea2646970667358221220b7847b38fbeaeedbb9c3eb7000214d29db4804746b6ed6d818d89cd5f7be63da64736f6c634300081b0033",
  "linkReferences": {},
  "deployedLinkReferences": {}
}