{
	"data": {
		"bytecode": {
			"linkReferences": {},
			"object": "6080604052348015600e575f80fd5b506102c08061001c5f395ff3fe60806040526004361061002c575f3560e01c806312065fe01461009f578063c2985578146100c957610068565b36610068577fac7c932dfed5a12f8cee69b87b1db28759f9abab0760d37031670980a55a216860405161005e9061016b565b60405180910390a1005b7fac7c932dfed5a12f8cee69b87b1db28759f9abab0760d37031670980a55a2168604051610095906101d3565b60405180910390a1005b3480156100aa575f80fd5b506100b36100d3565b6040516100c09190610209565b60405180910390f35b6100d16100da565b005b5f47905090565b7fac7c932dfed5a12f8cee69b87b1db28759f9abab0760d37031670980a55a21686040516101079061026c565b60405180910390a1565b5f82825260208201905092915050565b7f74686973206973207265636569766500000000000000000000000000000000005f82015250565b5f610155600f83610111565b915061016082610121565b602082019050919050565b5f6020820190508181035f83015261018281610149565b9050919050565b7f746869732069732066616c6c6261636b000000000000000000000000000000005f82015250565b5f6101bd601083610111565b91506101c882610189565b602082019050919050565b5f6020820190508181035f8301526101ea816101b1565b9050919050565b5f819050919050565b610203816101f1565b82525050565b5f60208201905061021c5f8301846101fa565b92915050565b7f7468697320697320666f6f0000000000000000000000000000000000000000005f82015250565b5f610256600b83610111565b915061026182610222565b602082019050919050565b5f6020820190508181035f8301526102838161024a565b905091905056fea2646970667358221220343905a8de3016b9224432df0420d9827c024d1b5be5844212f0d9354e4759ee64736f6c634300081a0033",
			"opcodes": "PUSH1 0x80 PUSH1 0x40 MSTORE CALLVALUE DUP1 ISZERO PUSH1 0xE JUMPI PUSH0 DUP1 REVERT JUMPDEST POP PUSH2 0x2C0 DUP1 PUSH2 0x1C PUSH0 CODECOPY PUSH0 RETURN INVALID PUSH1 0x80 PUSH1 0x40 MSTORE PUSH1 0x4 CALLDATASIZE LT PUSH2 0x2C JUMPI PUSH0 CALLDATALOAD PUSH1 0xE0 SHR DUP1 PUSH4 0x12065FE0 EQ PUSH2 0x9F JUMPI DUP1 PUSH4 0xC2985578 EQ PUSH2 0xC9 JUMPI PUSH2 0x68 JUMP JUMPDEST CALLDATASIZE PUSH2 0x68 JUMPI PUSH32 0xAC7C932DFED5A12F8CEE69B87B1DB28759F9ABAB0760D37031670980A55A2168 PUSH1 0x40 MLOAD PUSH2 0x5E SWAP1 PUSH2 0x16B JUMP JUMPDEST PUSH1 0x40 MLOAD DUP1 SWAP2 SUB SWAP1 LOG1 STOP JUMPDEST PUSH32 0xAC7C932DFED5A12F8CEE69B87B1DB28759F9ABAB0760D37031670980A55A2168 PUSH1 0x40 MLOAD PUSH2 0x95 SWAP1 PUSH2 0x1D3 JUMP JUMPDEST PUSH1 0x40 MLOAD DUP1 SWAP2 SUB SWAP1 LOG1 STOP JUMPDEST CALLVALUE DUP1 ISZERO PUSH2 0xAA JUMPI PUSH0 DUP1 REVERT JUMPDEST POP PUSH2 0xB3 PUSH2 0xD3 JUMP JUMPDEST PUSH1 0x40 MLOAD PUSH2 0xC0 SWAP2 SWAP1 PUSH2 0x209 JUMP JUMPDEST PUSH1 0x40 MLOAD DUP1 SWAP2 SUB SWAP1 RETURN JUMPDEST PUSH2 0xD1 PUSH2 0xDA JUMP JUMPDEST STOP JUMPDEST PUSH0 SELFBALANCE SWAP1 POP SWAP1 JUMP JUMPDEST PUSH32 0xAC7C932DFED5A12F8CEE69B87B1DB28759F9ABAB0760D37031670980A55A2168 PUSH1 0x40 MLOAD PUSH2 0x107 SWAP1 PUSH2 0x26C JUMP JUMPDEST PUSH1 0x40 MLOAD DUP1 SWAP2 SUB SWAP1 LOG1 JUMP JUMPDEST PUSH0 DUP3 DUP3 MSTORE PUSH1 0x20 DUP3 ADD SWAP1 POP SWAP3 SWAP2 POP POP JUMP JUMPDEST PUSH32 0x7468697320697320726563656976650000000000000000000000000000000000 PUSH0 DUP3 ADD MSTORE POP JUMP JUMPDEST PUSH0 PUSH2 0x155 PUSH1 0xF DUP4 PUSH2 0x111 JUMP JUMPDEST SWAP2 POP PUSH2 0x160 DUP3 PUSH2 0x121 JUMP JUMPDEST PUSH1 0x20 DUP3 ADD SWAP1 POP SWAP2 SWAP1 POP JUMP JUMPDEST PUSH0 PUSH1 0x20 DUP3 ADD SWAP1 POP DUP2 DUP2 SUB PUSH0 DUP4 ADD MSTORE PUSH2 0x182 DUP2 PUSH2 0x149 JUMP JUMPDEST SWAP1 POP SWAP2 SWAP1 POP JUMP JUMPDEST PUSH32 0x746869732069732066616C6C6261636B00000000000000000000000000000000 PUSH0 DUP3 ADD MSTORE POP JUMP JUMPDEST PUSH0 PUSH2 0x1BD PUSH1 0x10 DUP4 PUSH2 0x111 JUMP JUMPDEST SWAP2 POP PUSH2 0x1C8 DUP3 PUSH2 0x189 JUMP JUMPDEST PUSH1 0x20 DUP3 ADD SWAP1 POP SWAP2 SWAP1 POP JUMP JUMPDEST PUSH0 PUSH1 0x20 DUP3 ADD SWAP1 POP DUP2 DUP2 SUB PUSH0 DUP4 ADD MSTORE PUSH2 0x1EA DUP2 PUSH2 0x1B1 JUMP JUMPDEST SWAP1 POP SWAP2 SWAP1 POP JUMP JUMPDEST PUSH0 DUP2 SWAP1 POP SWAP2 SWAP1 POP JUMP JUMPDEST PUSH2 0x203 DUP2 PUSH2 0x1F1 JUMP JUMPDEST DUP3 MSTORE POP POP JUMP JUMPDEST PUSH0 PUSH1 0x20 DUP3 ADD SWAP1 POP PUSH2 0x21C PUSH0 DUP4 ADD DUP5 PUSH2 0x1FA JUMP JUMPDEST SWAP3 SWAP2 POP POP JUMP JUMPDEST PUSH32 0x7468697320697320666F6F000000000000000000000000000000000000000000 PUSH0 DUP3 ADD MSTORE POP JUMP JUMPDEST PUSH0 PUSH2 0x256 PUSH1 0xB DUP4 PUSH2 0x111 JUMP JUMPDEST SWAP2 POP PUSH2 0x261 DUP3 PUSH2 0x222 JUMP JUMPDEST PUSH1 0x20 DUP3 ADD SWAP1 POP SWAP2 SWAP1 POP JUMP JUMPDEST PUSH0 PUSH1 0x20 DUP3 ADD SWAP1 POP DUP2 DUP2 SUB PUSH0 DUP4 ADD MSTORE PUSH2 0x283 DUP2 PUSH2 0x24A JUMP JUMPDEST SWAP1 POP SWAP2 SWAP1 POP JUMP INVALID LOG2 PUSH5 0x6970667358 0x22 SLT KECCAK256 CALLVALUE CODECOPY SDIV 0xA8 0xDE ADDRESS AND 0xB9 0x22 PREVRANDAO ORIGIN 0xDF DIV KECCAK256 0xD9 DUP3 PUSH29 0x24D1B5BE5844212F0D9354E4759EE64736F6C634300081A0033000000 "
		},
		"gasEstimates": {
			"creation": {
				"codeDepositCost": "140800",
				"executionCost": "181",
				"totalCost": "140981"
			},
			"external": {
				"": "1903",
				"foo()": "1916",
				"getBalance()": "312"
			}
		},
		"methodIdentifiers": {
			"foo()": "c2985578",
			"getBalance()": "12065fe0"
		}
	},
	"abi": [
		{
			"anonymous": false,
			"inputs": [
				{
					"indexed": false,
					"internalType": "string",
					"name": "",
					"type": "string"
				}
			],
			"name": "FunctionCalled",
			"type": "event"
		},
		{
			"stateMutability": "payable",
			"type": "fallback"
		},
		{
			"inputs": [],
			"name": "foo",
			"outputs": [],
			"stateMutability": "payable",
			"type": "function"
		},
		{
			"inputs": [],
			"name": "getBalance",
			"outputs": [
				{
					"internalType": "uint256",
					"name": "",
					"type": "uint256"
				}
			],
			"stateMutability": "view",
			"type": "function"
		},
		{
			"stateMutability": "payable",
			"type": "receive"
		}
	]
}