{
	"data": {
		"bytecode": {
			"linkReferences": {},
			"object": "6080604052348015600e575f80fd5b5061035e8061001c5f395ff3fe608060405234801561000f575f80fd5b506004361061007b575f3560e01c8063aaf05f3d11610059578063aaf05f3d146100eb578063c27fc305146100f5578063cf35f823146100ff578063d7531d911461012f5761007b565b8063771602f71461007f5780639942ec6f146100af578063a8bc8423146100b9575b5f80fd5b610099600480360381019061009491906101b2565b61014b565b6040516100a691906101ff565b60405180910390f35b6100b7610160565b005b6100d360048036038101906100ce9190610218565b610162565b6040516100e293929190610268565b60405180910390f35b6100f361016e565b005b6100fd610170565b005b6101196004803603810190610114919061029d565b610172565b60405161012691906101ff565b60405180910390f35b6101496004803603810190610144919061029d565b610178565b005b5f818361015891906102f5565b905092915050565b565b5f805f93509350939050565b565b565b5f919050565b50565b5f80fd5b5f819050919050565b6101918161017f565b811461019b575f80fd5b50565b5f813590506101ac81610188565b92915050565b5f80604083850312156101c8576101c761017b565b5b5f6101d58582860161019e565b92505060206101e68582860161019e565b9150509250929050565b6101f98161017f565b82525050565b5f6020820190506102125f8301846101f0565b92915050565b5f805f6060848603121561022f5761022e61017b565b5b5f61023c8682870161019e565b935050602061024d8682870161019e565b925050604061025e8682870161019e565b9150509250925092565b5f60608201905061027b5f8301866101f0565b61028860208301856101f0565b61029560408301846101f0565b949350505050565b5f602082840312156102b2576102b161017b565b5b5f6102bf8482850161019e565b91505092915050565b7f4e487b71000000000000000000000000000000000000000000000000000000005f52601160045260245ffd5b5f6102ff8261017f565b915061030a8361017f565b9250828201905080821115610322576103216102c8565b5b9291505056fea26469706673582212207340a03790bcc7a40ae36e18b8623df2821c5ff87f2bcfe5ff5bc51d5473773f64736f6c634300081a0033",
			"opcodes": "PUSH1 0x80 PUSH1 0x40 MSTORE CALLVALUE DUP1 ISZERO PUSH1 0xE JUMPI PUSH0 DUP1 REVERT JUMPDEST POP PUSH2 0x35E DUP1 PUSH2 0x1C PUSH0 CODECOPY PUSH0 RETURN INVALID PUSH1 0x80 PUSH1 0x40 MSTORE CALLVALUE DUP1 ISZERO PUSH2 0xF JUMPI PUSH0 DUP1 REVERT JUMPDEST POP PUSH1 0x4 CALLDATASIZE LT PUSH2 0x7B JUMPI PUSH0 CALLDATALOAD PUSH1 0xE0 SHR DUP1 PUSH4 0xAAF05F3D GT PUSH2 0x59 JUMPI DUP1 PUSH4 0xAAF05F3D EQ PUSH2 0xEB JUMPI DUP1 PUSH4 0xC27FC305 EQ PUSH2 0xF5 JUMPI DUP1 PUSH4 0xCF35F823 EQ PUSH2 0xFF JUMPI DUP1 PUSH4 0xD7531D91 EQ PUSH2 0x12F JUMPI PUSH2 0x7B JUMP JUMPDEST DUP1 PUSH4 0x771602F7 EQ PUSH2 0x7F JUMPI DUP1 PUSH4 0x9942EC6F EQ PUSH2 0xAF JUMPI DUP1 PUSH4 0xA8BC8423 EQ PUSH2 0xB9 JUMPI JUMPDEST PUSH0 DUP1 REVERT JUMPDEST PUSH2 0x99 PUSH1 0x4 DUP1 CALLDATASIZE SUB DUP2 ADD SWAP1 PUSH2 0x94 SWAP2 SWAP1 PUSH2 0x1B2 JUMP JUMPDEST PUSH2 0x14B JUMP JUMPDEST PUSH1 0x40 MLOAD PUSH2 0xA6 SWAP2 SWAP1 PUSH2 0x1FF JUMP JUMPDEST PUSH1 0x40 MLOAD DUP1 SWAP2 SUB SWAP1 RETURN JUMPDEST PUSH2 0xB7 PUSH2 0x160 JUMP JUMPDEST STOP JUMPDEST PUSH2 0xD3 PUSH1 0x4 DUP1 CALLDATASIZE SUB DUP2 ADD SWAP1 PUSH2 0xCE SWAP2 SWAP1 PUSH2 0x218 JUMP JUMPDEST PUSH2 0x162 JUMP JUMPDEST PUSH1 0x40 MLOAD PUSH2 0xE2 SWAP4 SWAP3 SWAP2 SWAP1 PUSH2 0x268 JUMP JUMPDEST PUSH1 0x40 MLOAD DUP1 SWAP2 SUB SWAP1 RETURN JUMPDEST PUSH2 0xF3 PUSH2 0x16E JUMP JUMPDEST STOP JUMPDEST PUSH2 0xFD PUSH2 0x170 JUMP JUMPDEST STOP JUMPDEST PUSH2 0x119 PUSH1 0x4 DUP1 CALLDATASIZE SUB DUP2 ADD SWAP1 PUSH2 0x114 SWAP2 SWAP1 PUSH2 0x29D JUMP JUMPDEST PUSH2 0x172 JUMP JUMPDEST PUSH1 0x40 MLOAD PUSH2 0x126 SWAP2 SWAP1 PUSH2 0x1FF JUMP JUMPDEST PUSH1 0x40 MLOAD DUP1 SWAP2 SUB SWAP1 RETURN JUMPDEST PUSH2 0x149 PUSH1 0x4 DUP1 CALLDATASIZE SUB DUP2 ADD SWAP1 PUSH2 0x144 SWAP2 SWAP1 PUSH2 0x29D JUMP JUMPDEST PUSH2 0x178 JUMP JUMPDEST STOP JUMPDEST PUSH0 DUP2 DUP4 PUSH2 0x158 SWAP2 SWAP1 PUSH2 0x2F5 JUMP JUMPDEST SWAP1 POP SWAP3 SWAP2 POP POP JUMP JUMPDEST JUMP JUMPDEST PUSH0 DUP1 PUSH0 SWAP4 POP SWAP4 POP SWAP4 SWAP1 POP JUMP JUMPDEST JUMP JUMPDEST JUMP JUMPDEST PUSH0 SWAP2 SWAP1 POP JUMP JUMPDEST POP JUMP JUMPDEST PUSH0 DUP1 REVERT JUMPDEST PUSH0 DUP2 SWAP1 POP SWAP2 SWAP1 POP JUMP JUMPDEST PUSH2 0x191 DUP2 PUSH2 0x17F JUMP JUMPDEST DUP2 EQ PUSH2 0x19B JUMPI PUSH0 DUP1 REVERT JUMPDEST POP JUMP JUMPDEST PUSH0 DUP2 CALLDATALOAD SWAP1 POP PUSH2 0x1AC DUP2 PUSH2 0x188 JUMP JUMPDEST SWAP3 SWAP2 POP POP JUMP JUMPDEST PUSH0 DUP1 PUSH1 0x40 DUP4 DUP6 SUB SLT ISZERO PUSH2 0x1C8 JUMPI PUSH2 0x1C7 PUSH2 0x17B JUMP JUMPDEST JUMPDEST PUSH0 PUSH2 0x1D5 DUP6 DUP3 DUP7 ADD PUSH2 0x19E JUMP JUMPDEST SWAP3 POP POP PUSH1 0x20 PUSH2 0x1E6 DUP6 DUP3 DUP7 ADD PUSH2 0x19E JUMP JUMPDEST SWAP2 POP POP SWAP3 POP SWAP3 SWAP1 POP JUMP JUMPDEST PUSH2 0x1F9 DUP2 PUSH2 0x17F JUMP JUMPDEST DUP3 MSTORE POP POP JUMP JUMPDEST PUSH0 PUSH1 0x20 DUP3 ADD SWAP1 POP PUSH2 0x212 PUSH0 DUP4 ADD DUP5 PUSH2 0x1F0 JUMP JUMPDEST SWAP3 SWAP2 POP POP JUMP JUMPDEST PUSH0 DUP1 PUSH0 PUSH1 0x60 DUP5 DUP7 SUB SLT ISZERO PUSH2 0x22F JUMPI PUSH2 0x22E PUSH2 0x17B JUMP JUMPDEST JUMPDEST PUSH0 PUSH2 0x23C DUP7 DUP3 DUP8 ADD PUSH2 0x19E JUMP JUMPDEST SWAP4 POP POP PUSH1 0x20 PUSH2 0x24D DUP7 DUP3 DUP8 ADD PUSH2 0x19E JUMP JUMPDEST SWAP3 POP POP PUSH1 0x40 PUSH2 0x25E DUP7 DUP3 DUP8 ADD PUSH2 0x19E JUMP JUMPDEST SWAP2 POP POP SWAP3 POP SWAP3 POP SWAP3 JUMP JUMPDEST PUSH0 PUSH1 0x60 DUP3 ADD SWAP1 POP PUSH2 0x27B PUSH0 DUP4 ADD DUP7 PUSH2 0x1F0 JUMP JUMPDEST PUSH2 0x288 PUSH1 0x20 DUP4 ADD DUP6 PUSH2 0x1F0 JUMP JUMPDEST PUSH2 0x295 PUSH1 0x40 DUP4 ADD DUP5 PUSH2 0x1F0 JUMP JUMPDEST SWAP5 SWAP4 POP POP POP POP JUMP JUMPDEST PUSH0 PUSH1 0x20 DUP3 DUP5 SUB SLT ISZERO PUSH2 0x2B2 JUMPI PUSH2 0x2B1 PUSH2 0x17B JUMP JUMPDEST JUMPDEST PUSH0 PUSH2 0x2BF DUP5 DUP3 DUP6 ADD PUSH2 0x19E JUMP JUMPDEST SWAP2 POP POP SWAP3 SWAP2 POP POP JUMP JUMPDEST PUSH32 0x4E487B7100000000000000000000000000000000000000000000000000000000 PUSH0 MSTORE PUSH1 0x11 PUSH1 0x4 MSTORE PUSH1 0x24 PUSH0 REVERT JUMPDEST PUSH0 PUSH2 0x2FF DUP3 PUSH2 0x17F JUMP JUMPDEST SWAP2 POP PUSH2 0x30A DUP4 PUSH2 0x17F JUMP JUMPDEST SWAP3 POP DUP3 DUP3 ADD SWAP1 POP DUP1 DUP3 GT ISZERO PUSH2 0x322 JUMPI PUSH2 0x321 PUSH2 0x2C8 JUMP JUMPDEST JUMPDEST SWAP3 SWAP2 POP POP JUMP INVALID LOG2 PUSH5 0x6970667358 0x22 SLT KECCAK256 PUSH20 0x40A03790BCC7A40AE36E18B8623DF2821C5FF87F 0x2B 0xCF 0xE5 SELFDESTRUCT JUMPDEST 0xC5 SAR SLOAD PUSH20 0x773F64736F6C634300081A003300000000000000 "
		},
		"gasEstimates": {
			"creation": {
				"codeDepositCost": "172400",
				"executionCost": "212",
				"totalCost": "172612"
			},
			"external": {
				"add(uint256,uint256)": "infinite",
				"f1()": "165",
				"f2()": "166",
				"f3()": "143",
				"f4(uint256)": "467",
				"f5(uint256)": "infinite",
				"f6(uint256,uint256,uint256)": "infinite"
			}
		},
		"methodIdentifiers": {
			"add(uint256,uint256)": "771602f7",
			"f1()": "c27fc305",
			"f2()": "9942ec6f",
			"f3()": "aaf05f3d",
			"f4(uint256)": "d7531d91",
			"f5(uint256)": "cf35f823",
			"f6(uint256,uint256,uint256)": "a8bc8423"
		}
	},
	"abi": [
		{
			"inputs": [
				{
					"internalType": "uint256",
					"name": "lhs",
					"type": "uint256"
				},
				{
					"internalType": "uint256",
					"name": "rhs",
					"type": "uint256"
				}
			],
			"name": "add",
			"outputs": [
				{
					"internalType": "uint256",
					"name": "",
					"type": "uint256"
				}
			],
			"stateMutability": "pure",
			"type": "function"
		},
		{
			"inputs": [],
			"name": "f1",
			"outputs": [],
			"stateMutability": "nonpayable",
			"type": "function"
		},
		{
			"inputs": [],
			"name": "f2",
			"outputs": [],
			"stateMutability": "pure",
			"type": "function"
		},
		{
			"inputs": [],
			"name": "f3",
			"outputs": [],
			"stateMutability": "view",
			"type": "function"
		},
		{
			"inputs": [
				{
					"internalType": "uint256",
					"name": "a",
					"type": "uint256"
				}
			],
			"name": "f4",
			"outputs": [],
			"stateMutability": "pure",
			"type": "function"
		},
		{
			"inputs": [
				{
					"internalType": "uint256",
					"name": "a",
					"type": "uint256"
				}
			],
			"name": "f5",
			"outputs": [
				{
					"internalType": "uint256",
					"name": "",
					"type": "uint256"
				}
			],
			"stateMutability": "pure",
			"type": "function"
		},
		{
			"inputs": [
				{
					"internalType": "uint256",
					"name": "a",
					"type": "uint256"
				},
				{
					"internalType": "uint256",
					"name": "b",
					"type": "uint256"
				},
				{
					"internalType": "uint256",
					"name": "c",
					"type": "uint256"
				}
			],
			"name": "f6",
			"outputs": [
				{
					"internalType": "uint256",
					"name": "",
					"type": "uint256"
				},
				{
					"internalType": "uint256",
					"name": "",
					"type": "uint256"
				},
				{
					"internalType": "uint256",
					"name": "",
					"type": "uint256"
				}
			],
			"stateMutability": "pure",
			"type": "function"
		}
	]
}