{
	"data": {
		"bytecode": {
			"linkReferences": {},
			"object": "6080604052348015600e575f80fd5b50607e80601a5f395ff3fe6080604052348015600e575f80fd5b50600436106030575f3560e01c80631b89948e1460345780633e87d65a14603c575b5f80fd5b603a6044565b005b60426046565b005b565b56fea2646970667358221220a192e99474cb274691b4c07362fdfde92338ab43324bc51ebed18419e30f235b64736f6c634300081a0033",
			"opcodes": "PUSH1 0x80 PUSH1 0x40 MSTORE CALLVALUE DUP1 ISZERO PUSH1 0xE JUMPI PUSH0 DUP1 REVERT JUMPDEST POP PUSH1 0x7E DUP1 PUSH1 0x1A PUSH0 CODECOPY PUSH0 RETURN INVALID PUSH1 0x80 PUSH1 0x40 MSTORE CALLVALUE DUP1 ISZERO PUSH1 0xE JUMPI PUSH0 DUP1 REVERT JUMPDEST POP PUSH1 0x4 CALLDATASIZE LT PUSH1 0x30 JUMPI PUSH0 CALLDATALOAD PUSH1 0xE0 SHR DUP1 PUSH4 0x1B89948E EQ PUSH1 0x34 JUMPI DUP1 PUSH4 0x3E87D65A EQ PUSH1 0x3C JUMPI JUMPDEST PUSH0 DUP1 REVERT JUMPDEST PUSH1 0x3A PUSH1 0x44 JUMP JUMPDEST STOP JUMPDEST PUSH1 0x42 PUSH1 0x46 JUMP JUMPDEST STOP JUMPDEST JUMP JUMPDEST JUMP INVALID LOG2 PUSH5 0x6970667358 0x22 SLT KECCAK256 LOG1 SWAP3 0xE9 SWAP5 PUSH21 0xCB274691B4C07362FDFDE92338AB43324BC51EBED1 DUP5 NOT 0xE3 0xF 0x23 JUMPDEST PUSH5 0x736F6C6343 STOP ADDMOD BYTE STOP CALLER "
		},
		"gasEstimates": {
			"creation": {
				"codeDepositCost": "25200",
				"executionCost": "73",
				"totalCost": "25273"
			},
			"external": {
				"funcExternal()": "143",
				"funcPublic()": "121"
			},
			"internal": {
				"funcInternal()": "infinite",
				"funcPrivate()": "infinite"
			}
		},
		"methodIdentifiers": {
			"funcExternal()": "3e87d65a",
			"funcPublic()": "1b89948e"
		}
	},
	"abi": [
		{
			"inputs": [],
			"name": "funcExternal",
			"outputs": [],
			"stateMutability": "nonpayable",
			"type": "function"
		},
		{
			"inputs": [],
			"name": "funcPublic",
			"outputs": [],
			"stateMutability": "nonpayable",
			"type": "function"
		}
	]
}