{
	"level0/task2/Integer.sol": {
		"Integer": {
			"abi": [
				{
					"inputs": [],
					"name": "overflow",
					"outputs": [],
					"stateMutability": "pure",
					"type": "function"
				}
			],
			"devdoc": {
				"kind": "dev",
				"methods": {},
				"version": 1
			},
			"evm": {
				"assembly": "    /* \"level0/task2/Integer.sol\":67:241  contract Integer {... */\n  mstore(0x40, 0x80)\n  callvalue\n  dup1\n  iszero\n  tag_1\n  jumpi\n  0x00\n  dup1\n  revert\ntag_1:\n  pop\n  dataSize(sub_0)\n  dup1\n  dataOffset(sub_0)\n  0x00\n  codecopy\n  0x00\n  return\nstop\n\nsub_0: assembly {\n        /* \"level0/task2/Integer.sol\":67:241  contract Integer {... */\n      mstore(0x40, 0x80)\n      callvalue\n      dup1\n      iszero\n      tag_1\n      jumpi\n      0x00\n      dup1\n      revert\n    tag_1:\n      pop\n      jumpi(tag_2, lt(calldatasize, 0x04))\n      shr(0xe0, calldataload(0x00))\n      dup1\n      0x4264c3\n      eq\n      tag_3\n      jumpi\n    tag_2:\n      0x00\n      dup1\n      revert\n        /* \"level0/task2/Integer.sol\":91:238  function overflow() public pure {... */\n    tag_3:\n      tag_4\n      tag_5\n      jump\t// in\n    tag_4:\n      stop\n    tag_5:\n        /* \"level0/task2/Integer.sol\":134:141  uint8 a */\n      0x00\n        /* \"level0/task2/Integer.sol\":144:147  255 */\n      0xff\n        /* \"level0/task2/Integer.sol\":134:147  uint8 a = 255 */\n      swap1\n      pop\n        /* \"level0/task2/Integer.sol\":164:165  1 */\n      0x01\n        /* \"level0/task2/Integer.sol\":162:163  a */\n      dup2\n        /* \"level0/task2/Integer.sol\":162:165  a+1 */\n      tag_7\n      swap2\n      swap1\n      tag_8\n      jump\t// in\n    tag_7:\n        /* \"level0/task2/Integer.sol\":158:165  a = a+1 */\n      swap1\n      pop\n        /* \"level0/task2/Integer.sol\":123:238  {... */\n      pop\n        /* \"level0/task2/Integer.sol\":91:238  function overflow() public pure {... */\n      jump\t// out\n        /* \"#utility.yul\":7:93   */\n    tag_9:\n        /* \"#utility.yul\":42:49   */\n      0x00\n        /* \"#utility.yul\":82:86   */\n      0xff\n        /* \"#utility.yul\":75:80   */\n      dup3\n        /* \"#utility.yul\":71:87   */\n      and\n        /* \"#utility.yul\":60:87   */\n      swap1\n      pop\n        /* \"#utility.yul\":7:93   */\n      swap2\n      swap1\n      pop\n      jump\t// out\n        /* \"#utility.yul\":99:279   */\n    tag_10:\n        /* \"#utility.yul\":147:224   */\n      0x4e487b7100000000000000000000000000000000000000000000000000000000\n        /* \"#utility.yul\":144:145   */\n      0x00\n        /* \"#utility.yul\":137:225   */\n      mstore\n        /* \"#utility.yul\":244:248   */\n      0x11\n        /* \"#utility.yul\":241:242   */\n      0x04\n        /* \"#utility.yul\":234:249   */\n      mstore\n        /* \"#utility.yul\":268:272   */\n      0x24\n        /* \"#utility.yul\":265:266   */\n      0x00\n        /* \"#utility.yul\":258:273   */\n      revert\n        /* \"#utility.yul\":285:473   */\n    tag_8:\n        /* \"#utility.yul\":323:326   */\n      0x00\n        /* \"#utility.yul\":342:360   */\n      tag_15\n        /* \"#utility.yul\":358:359   */\n      dup3\n        /* \"#utility.yul\":342:360   */\n      tag_9\n      jump\t// in\n    tag_15:\n        /* \"#utility.yul\":337:360   */\n      swap2\n      pop\n        /* \"#utility.yul\":374:392   */\n      tag_16\n        /* \"#utility.yul\":390:391   */\n      dup4\n        /* \"#utility.yul\":374:392   */\n      tag_9\n      jump\t// in\n    tag_16:\n        /* \"#utility.yul\":369:392   */\n      swap3\n      pop\n        /* \"#utility.yul\":415:416   */\n      dup3\n        /* \"#utility.yul\":412:413   */\n      dup3\n        /* \"#utility.yul\":408:417   */\n      add\n        /* \"#utility.yul\":401:417   */\n      swap1\n      pop\n        /* \"#utility.yul\":438:442   */\n      0xff\n        /* \"#utility.yul\":433:436   */\n      dup2\n        /* \"#utility.yul\":430:443   */\n      gt\n        /* \"#utility.yul\":427:466   */\n      iszero\n      tag_17\n      jumpi\n        /* \"#utility.yul\":446:464   */\n      tag_18\n      tag_10\n      jump\t// in\n    tag_18:\n        /* \"#utility.yul\":427:466   */\n    tag_17:\n        /* \"#utility.yul\":285:473   */\n      swap3\n      swap2\n      pop\n      pop\n      jump\t// out\n\n    auxdata: 0xa26469706673582212207e24054acd4ce429419d283602780c48559519614a3db6ba4887fb5c514c486f64736f6c634300081a0033\n}\n",
				"bytecode": {
					"linkReferences": {},
					"object": "6080604052348015600e575f80fd5b5060e28061001b5f395ff3fe6080604052348015600e575f80fd5b50600436106025575f3560e01c80624264c3146029575b5f80fd5b602f6031565b005b5f60ff905060018160419190607f565b905050565b5f60ff82169050919050565b7f4e487b71000000000000000000000000000000000000000000000000000000005f52601160045260245ffd5b5f6087826046565b91506090836046565b9250828201905060ff81111560a65760a56052565b5b9291505056fea26469706673582212207e24054acd4ce429419d283602780c48559519614a3db6ba4887fb5c514c486f64736f6c634300081a0033",
					"opcodes": "PUSH1 0x80 PUSH1 0x40 MSTORE CALLVALUE DUP1 ISZERO PUSH1 0xE JUMPI PUSH0 DUP1 REVERT JUMPDEST POP PUSH1 0xE2 DUP1 PUSH2 0x1B PUSH0 CODECOPY PUSH0 RETURN INVALID PUSH1 0x80 PUSH1 0x40 MSTORE CALLVALUE DUP1 ISZERO PUSH1 0xE JUMPI PUSH0 DUP1 REVERT JUMPDEST POP PUSH1 0x4 CALLDATASIZE LT PUSH1 0x25 JUMPI PUSH0 CALLDATALOAD PUSH1 0xE0 SHR DUP1 PUSH3 0x4264C3 EQ PUSH1 0x29 JUMPI JUMPDEST PUSH0 DUP1 REVERT JUMPDEST PUSH1 0x2F PUSH1 0x31 JUMP JUMPDEST STOP JUMPDEST PUSH0 PUSH1 0xFF SWAP1 POP PUSH1 0x1 DUP2 PUSH1 0x41 SWAP2 SWAP1 PUSH1 0x7F JUMP JUMPDEST SWAP1 POP POP JUMP JUMPDEST PUSH0 PUSH1 0xFF DUP3 AND SWAP1 POP SWAP2 SWAP1 POP JUMP JUMPDEST PUSH32 0x4E487B7100000000000000000000000000000000000000000000000000000000 PUSH0 MSTORE PUSH1 0x11 PUSH1 0x4 MSTORE PUSH1 0x24 PUSH0 REVERT JUMPDEST PUSH0 PUSH1 0x87 DUP3 PUSH1 0x46 JUMP JUMPDEST SWAP2 POP PUSH1 0x90 DUP4 PUSH1 0x46 JUMP JUMPDEST SWAP3 POP DUP3 DUP3 ADD SWAP1 POP PUSH1 0xFF DUP2 GT ISZERO PUSH1 0xA6 JUMPI PUSH1 0xA5 PUSH1 0x52 JUMP JUMPDEST JUMPDEST SWAP3 SWAP2 POP POP JUMP INVALID LOG2 PUSH5 0x6970667358 0x22 SLT KECCAK256 PUSH31 0x24054ACD4CE429419D283602780C48559519614A3DB6BA4887FB5C514C486F PUSH5 0x736F6C6343 STOP ADDMOD BYTE STOP CALLER "
				},
				"gasEstimates": {
					"creation": {
						"codeDepositCost": "45200",
						"executionCost": "97",
						"totalCost": "45297"
					},
					"external": {
						"overflow()": "infinite"
					}
				},
				"methodIdentifiers": {
					"overflow()": "004264c3"
				}
			},
			"storageLayout": {
				"storage": [],
				"types": null
			},
			"userdoc": {
				"kind": "user",
				"methods": {},
				"version": 1
			}
		}
	}
}