{
	"level0/task2/Require.sol": {
		"Require": {
			"abi": [
				{
					"inputs": [
						{
							"internalType": "address payable",
							"name": "addr1",
							"type": "address"
						},
						{
							"internalType": "address payable",
							"name": "addr2",
							"type": "address"
						}
					],
					"name": "splitEther",
					"outputs": [],
					"stateMutability": "payable",
					"type": "function"
				}
			],
			"devdoc": {
				"kind": "dev",
				"methods": {},
				"version": 1
			},
			"evm": {
				"assembly": "    /* \"level0/task2/Require.sol\":67:370  contract Require {... */\n  mstore(0x40, 0x80)\n  callvalue\n  dup1\n  iszero\n  tag_1\n  jumpi\n  0x00\n  dup1\n  revert\ntag_1:\n  pop\n  dataSize(sub_0)\n  dup1\n  dataOffset(sub_0)\n  0x00\n  codecopy\n  0x00\n  return\nstop\n\nsub_0: assembly {\n        /* \"level0/task2/Require.sol\":67:370  contract Require {... */\n      mstore(0x40, 0x80)\n      jumpi(tag_1, lt(calldatasize, 0x04))\n      shr(0xe0, calldataload(0x00))\n      dup1\n      0x69b08d7d\n      eq\n      tag_2\n      jumpi\n    tag_1:\n      0x00\n      dup1\n      revert\n        /* \"level0/task2/Require.sol\":97:367  function splitEther(address payable addr1, address payable addr2) public payable {... */\n    tag_2:\n      tag_3\n      0x04\n      dup1\n      calldatasize\n      sub\n      dup2\n      add\n      swap1\n      tag_4\n      swap2\n      swap1\n      tag_5\n      jump\t// in\n    tag_4:\n      tag_6\n      jump\t// in\n    tag_3:\n      stop\n    tag_6:\n        /* \"level0/task2/Require.sol\":214:215  0 */\n      0x00\n        /* \"level0/task2/Require.sol\":209:210  2 */\n      0x02\n        /* \"level0/task2/Require.sol\":197:206  msg.value */\n      callvalue\n        /* \"level0/task2/Require.sol\":197:210  msg.value % 2 */\n      tag_8\n      swap2\n      swap1\n      tag_9\n      jump\t// in\n    tag_8:\n        /* \"level0/task2/Require.sol\":197:215  msg.value % 2 == 0 */\n      eq\n        /* \"level0/task2/Require.sol\":189:240  require(msg.value % 2 == 0, \"Even value required.\") */\n      tag_10\n      jumpi\n      mload(0x40)\n      0x08c379a000000000000000000000000000000000000000000000000000000000\n      dup2\n      mstore\n      0x04\n      add\n      tag_11\n      swap1\n      tag_12\n      jump\t// in\n    tag_11:\n      mload(0x40)\n      dup1\n      swap2\n      sub\n      swap1\n      revert\n    tag_10:\n        /* \"level0/task2/Require.sol\":290:295  addr1 */\n      dup2\n        /* \"level0/task2/Require.sol\":290:304  addr1.transfer */\n      0xffffffffffffffffffffffffffffffffffffffff\n      and\n        /* \"level0/task2/Require.sol\":290:319  addr1.transfer(msg.value / 2) */\n      0x08fc\n        /* \"level0/task2/Require.sol\":317:318  2 */\n      0x02\n        /* \"level0/task2/Require.sol\":305:314  msg.value */\n      callvalue\n        /* \"level0/task2/Require.sol\":305:318  msg.value / 2 */\n      tag_13\n      swap2\n      swap1\n      tag_14\n      jump\t// in\n    tag_13:\n        /* \"level0/task2/Require.sol\":290:319  addr1.transfer(msg.value / 2) */\n      swap1\n      dup2\n      iszero\n      mul\n      swap1\n      mload(0x40)\n      0x00\n      mload(0x40)\n      dup1\n      dup4\n      sub\n      dup2\n      dup6\n      dup9\n      dup9\n      call\n      swap4\n      pop\n      pop\n      pop\n      pop\n      iszero\n      dup1\n      iszero\n      tag_16\n      jumpi\n      returndatasize\n      0x00\n      dup1\n      returndatacopy\n      revert(0x00, returndatasize)\n    tag_16:\n      pop\n        /* \"level0/task2/Require.sol\":330:335  addr2 */\n      dup1\n        /* \"level0/task2/Require.sol\":330:344  addr2.transfer */\n      0xffffffffffffffffffffffffffffffffffffffff\n      and\n        /* \"level0/task2/Require.sol\":330:359  addr2.transfer(msg.value / 2) */\n      0x08fc\n        /* \"level0/task2/Require.sol\":357:358  2 */\n      0x02\n        /* \"level0/task2/Require.sol\":345:354  msg.value */\n      callvalue\n        /* \"level0/task2/Require.sol\":345:358  msg.value / 2 */\n      tag_17\n      swap2\n      swap1\n      tag_14\n      jump\t// in\n    tag_17:\n        /* \"level0/task2/Require.sol\":330:359  addr2.transfer(msg.value / 2) */\n      swap1\n      dup2\n      iszero\n      mul\n      swap1\n      mload(0x40)\n      0x00\n      mload(0x40)\n      dup1\n      dup4\n      sub\n      dup2\n      dup6\n      dup9\n      dup9\n      call\n      swap4\n      pop\n      pop\n      pop\n      pop\n      iszero\n      dup1\n      iszero\n      tag_19\n      jumpi\n      returndatasize\n      0x00\n      dup1\n      returndatacopy\n      revert(0x00, returndatasize)\n    tag_19:\n      pop\n        /* \"level0/task2/Require.sol\":97:367  function splitEther(address payable addr1, address payable addr2) public payable {... */\n      pop\n      pop\n      jump\t// out\n        /* \"#utility.yul\":88:205   */\n    tag_21:\n        /* \"#utility.yul\":197:198   */\n      0x00\n        /* \"#utility.yul\":194:195   */\n      dup1\n        /* \"#utility.yul\":187:199   */\n      revert\n        /* \"#utility.yul\":334:460   */\n    tag_23:\n        /* \"#utility.yul\":371:378   */\n      0x00\n        /* \"#utility.yul\":411:453   */\n      0xffffffffffffffffffffffffffffffffffffffff\n        /* \"#utility.yul\":404:409   */\n      dup3\n        /* \"#utility.yul\":400:454   */\n      and\n        /* \"#utility.yul\":389:454   */\n      swap1\n      pop\n        /* \"#utility.yul\":334:460   */\n      swap2\n      swap1\n      pop\n      jump\t// out\n        /* \"#utility.yul\":466:570   */\n    tag_24:\n        /* \"#utility.yul\":511:518   */\n      0x00\n        /* \"#utility.yul\":540:564   */\n      tag_39\n        /* \"#utility.yul\":558:563   */\n      dup3\n        /* \"#utility.yul\":540:564   */\n      tag_23\n      jump\t// in\n    tag_39:\n        /* \"#utility.yul\":529:564   */\n      swap1\n      pop\n        /* \"#utility.yul\":466:570   */\n      swap2\n      swap1\n      pop\n      jump\t// out\n        /* \"#utility.yul\":576:714   */\n    tag_25:\n        /* \"#utility.yul\":657:689   */\n      tag_41\n        /* \"#utility.yul\":683:688   */\n      dup2\n        /* \"#utility.yul\":657:689   */\n      tag_24\n      jump\t// in\n    tag_41:\n        /* \"#utility.yul\":650:655   */\n      dup2\n        /* \"#utility.yul\":647:690   */\n      eq\n        /* \"#utility.yul\":637:708   */\n      tag_42\n      jumpi\n        /* \"#utility.yul\":704:705   */\n      0x00\n        /* \"#utility.yul\":701:702   */\n      dup1\n        /* \"#utility.yul\":694:706   */\n      revert\n        /* \"#utility.yul\":637:708   */\n    tag_42:\n        /* \"#utility.yul\":576:714   */\n      pop\n      jump\t// out\n        /* \"#utility.yul\":720:875   */\n    tag_26:\n        /* \"#utility.yul\":774:779   */\n      0x00\n        /* \"#utility.yul\":812:818   */\n      dup2\n        /* \"#utility.yul\":799:819   */\n      calldataload\n        /* \"#utility.yul\":790:819   */\n      swap1\n      pop\n        /* \"#utility.yul\":828:869   */\n      tag_44\n        /* \"#utility.yul\":863:868   */\n      dup2\n        /* \"#utility.yul\":828:869   */\n      tag_25\n      jump\t// in\n    tag_44:\n        /* \"#utility.yul\":720:875   */\n      swap3\n      swap2\n      pop\n      pop\n      jump\t// out\n        /* \"#utility.yul\":881:1387   */\n    tag_5:\n        /* \"#utility.yul\":965:971   */\n      0x00\n        /* \"#utility.yul\":973:979   */\n      dup1\n        /* \"#utility.yul\":1022:1024   */\n      0x40\n        /* \"#utility.yul\":1010:1019   */\n      dup4\n        /* \"#utility.yul\":1001:1008   */\n      dup6\n        /* \"#utility.yul\":997:1020   */\n      sub\n        /* \"#utility.yul\":993:1025   */\n      slt\n        /* \"#utility.yul\":990:1109   */\n      iszero\n      tag_46\n      jumpi\n        /* \"#utility.yul\":1028:1107   */\n      tag_47\n      tag_21\n      jump\t// in\n    tag_47:\n        /* \"#utility.yul\":990:1109   */\n    tag_46:\n        /* \"#utility.yul\":1148:1149   */\n      0x00\n        /* \"#utility.yul\":1173:1234   */\n      tag_48\n        /* \"#utility.yul\":1226:1233   */\n      dup6\n        /* \"#utility.yul\":1217:1223   */\n      dup3\n        /* \"#utility.yul\":1206:1215   */\n      dup7\n        /* \"#utility.yul\":1202:1224   */\n      add\n        /* \"#utility.yul\":1173:1234   */\n      tag_26\n      jump\t// in\n    tag_48:\n        /* \"#utility.yul\":1163:1234   */\n      swap3\n      pop\n        /* \"#utility.yul\":1119:1244   */\n      pop\n        /* \"#utility.yul\":1283:1285   */\n      0x20\n        /* \"#utility.yul\":1309:1370   */\n      tag_49\n        /* \"#utility.yul\":1362:1369   */\n      dup6\n        /* \"#utility.yul\":1353:1359   */\n      dup3\n        /* \"#utility.yul\":1342:1351   */\n      dup7\n        /* \"#utility.yul\":1338:1360   */\n      add\n        /* \"#utility.yul\":1309:1370   */\n      tag_26\n      jump\t// in\n    tag_49:\n        /* \"#utility.yul\":1299:1370   */\n      swap2\n      pop\n        /* \"#utility.yul\":1254:1380   */\n      pop\n        /* \"#utility.yul\":881:1387   */\n      swap3\n      pop\n      swap3\n      swap1\n      pop\n      jump\t// out\n        /* \"#utility.yul\":1393:1470   */\n    tag_27:\n        /* \"#utility.yul\":1430:1437   */\n      0x00\n        /* \"#utility.yul\":1459:1464   */\n      dup2\n        /* \"#utility.yul\":1448:1464   */\n      swap1\n      pop\n        /* \"#utility.yul\":1393:1470   */\n      swap2\n      swap1\n      pop\n      jump\t// out\n        /* \"#utility.yul\":1476:1656   */\n    tag_28:\n        /* \"#utility.yul\":1524:1601   */\n      0x4e487b7100000000000000000000000000000000000000000000000000000000\n        /* \"#utility.yul\":1521:1522   */\n      0x00\n        /* \"#utility.yul\":1514:1602   */\n      mstore\n        /* \"#utility.yul\":1621:1625   */\n      0x12\n        /* \"#utility.yul\":1618:1619   */\n      0x04\n        /* \"#utility.yul\":1611:1626   */\n      mstore\n        /* \"#utility.yul\":1645:1649   */\n      0x24\n        /* \"#utility.yul\":1642:1643   */\n      0x00\n        /* \"#utility.yul\":1635:1650   */\n      revert\n        /* \"#utility.yul\":1662:1838   */\n    tag_9:\n        /* \"#utility.yul\":1694:1695   */\n      0x00\n        /* \"#utility.yul\":1711:1731   */\n      tag_53\n        /* \"#utility.yul\":1729:1730   */\n      dup3\n        /* \"#utility.yul\":1711:1731   */\n      tag_27\n      jump\t// in\n    tag_53:\n        /* \"#utility.yul\":1706:1731   */\n      swap2\n      pop\n        /* \"#utility.yul\":1745:1765   */\n      tag_54\n        /* \"#utility.yul\":1763:1764   */\n      dup4\n        /* \"#utility.yul\":1745:1765   */\n      tag_27\n      jump\t// in\n    tag_54:\n        /* \"#utility.yul\":1740:1765   */\n      swap3\n      pop\n        /* \"#utility.yul\":1784:1785   */\n      dup3\n        /* \"#utility.yul\":1774:1809   */\n      tag_55\n      jumpi\n        /* \"#utility.yul\":1789:1807   */\n      tag_56\n      tag_28\n      jump\t// in\n    tag_56:\n        /* \"#utility.yul\":1774:1809   */\n    tag_55:\n        /* \"#utility.yul\":1830:1831   */\n      dup3\n        /* \"#utility.yul\":1827:1828   */\n      dup3\n        /* \"#utility.yul\":1823:1832   */\n      mod\n        /* \"#utility.yul\":1818:1832   */\n      swap1\n      pop\n        /* \"#utility.yul\":1662:1838   */\n      swap3\n      swap2\n      pop\n      pop\n      jump\t// out\n        /* \"#utility.yul\":1844:2013   */\n    tag_29:\n        /* \"#utility.yul\":1928:1939   */\n      0x00\n        /* \"#utility.yul\":1962:1968   */\n      dup3\n        /* \"#utility.yul\":1957:1960   */\n      dup3\n        /* \"#utility.yul\":1950:1969   */\n      mstore\n        /* \"#utility.yul\":2002:2006   */\n      0x20\n        /* \"#utility.yul\":1997:2000   */\n      dup3\n        /* \"#utility.yul\":1993:2007   */\n      add\n        /* \"#utility.yul\":1978:2007   */\n      swap1\n      pop\n        /* \"#utility.yul\":1844:2013   */\n      swap3\n      swap2\n      pop\n      pop\n      jump\t// out\n        /* \"#utility.yul\":2019:2189   */\n    tag_30:\n        /* \"#utility.yul\":2159:2181   */\n      0x4576656e2076616c75652072657175697265642e000000000000000000000000\n        /* \"#utility.yul\":2155:2156   */\n      0x00\n        /* \"#utility.yul\":2147:2153   */\n      dup3\n        /* \"#utility.yul\":2143:2157   */\n      add\n        /* \"#utility.yul\":2136:2182   */\n      mstore\n        /* \"#utility.yul\":2019:2189   */\n      pop\n      jump\t// out\n        /* \"#utility.yul\":2195:2561   */\n    tag_31:\n        /* \"#utility.yul\":2337:2340   */\n      0x00\n        /* \"#utility.yul\":2358:2425   */\n      tag_60\n        /* \"#utility.yul\":2422:2424   */\n      0x14\n        /* \"#utility.yul\":2417:2420   */\n      dup4\n        /* \"#utility.yul\":2358:2425   */\n      tag_29\n      jump\t// in\n    tag_60:\n        /* \"#utility.yul\":2351:2425   */\n      swap2\n      pop\n        /* \"#utility.yul\":2434:2527   */\n      tag_61\n        /* \"#utility.yul\":2523:2526   */\n      dup3\n        /* \"#utility.yul\":2434:2527   */\n      tag_30\n      jump\t// in\n    tag_61:\n        /* \"#utility.yul\":2552:2554   */\n      0x20\n        /* \"#utility.yul\":2547:2550   */\n      dup3\n        /* \"#utility.yul\":2543:2555   */\n      add\n        /* \"#utility.yul\":2536:2555   */\n      swap1\n      pop\n        /* \"#utility.yul\":2195:2561   */\n      swap2\n      swap1\n      pop\n      jump\t// out\n        /* \"#utility.yul\":2567:2986   */\n    tag_12:\n        /* \"#utility.yul\":2733:2737   */\n      0x00\n        /* \"#utility.yul\":2771:2773   */\n      0x20\n        /* \"#utility.yul\":2760:2769   */\n      dup3\n        /* \"#utility.yul\":2756:2774   */\n      add\n        /* \"#utility.yul\":2748:2774   */\n      swap1\n      pop\n        /* \"#utility.yul\":2820:2829   */\n      dup2\n        /* \"#utility.yul\":2814:2818   */\n      dup2\n        /* \"#utility.yul\":2810:2830   */\n      sub\n        /* \"#utility.yul\":2806:2807   */\n      0x00\n        /* \"#utility.yul\":2795:2804   */\n      dup4\n        /* \"#utility.yul\":2791:2808   */\n      add\n        /* \"#utility.yul\":2784:2831   */\n      mstore\n        /* \"#utility.yul\":2848:2979   */\n      tag_63\n        /* \"#utility.yul\":2974:2978   */\n      dup2\n        /* \"#utility.yul\":2848:2979   */\n      tag_31\n      jump\t// in\n    tag_63:\n        /* \"#utility.yul\":2840:2979   */\n      swap1\n      pop\n        /* \"#utility.yul\":2567:2986   */\n      swap2\n      swap1\n      pop\n      jump\t// out\n        /* \"#utility.yul\":3178:3363   */\n    tag_14:\n        /* \"#utility.yul\":3218:3219   */\n      0x00\n        /* \"#utility.yul\":3235:3255   */\n      tag_66\n        /* \"#utility.yul\":3253:3254   */\n      dup3\n        /* \"#utility.yul\":3235:3255   */\n      tag_27\n      jump\t// in\n    tag_66:\n        /* \"#utility.yul\":3230:3255   */\n      swap2\n      pop\n        /* \"#utility.yul\":3269:3289   */\n      tag_67\n        /* \"#utility.yul\":3287:3288   */\n      dup4\n        /* \"#utility.yul\":3269:3289   */\n      tag_27\n      jump\t// in\n    tag_67:\n        /* \"#utility.yul\":3264:3289   */\n      swap3\n      pop\n        /* \"#utility.yul\":3308:3309   */\n      dup3\n        /* \"#utility.yul\":3298:3333   */\n      tag_68\n      jumpi\n        /* \"#utility.yul\":3313:3331   */\n      tag_69\n      tag_28\n      jump\t// in\n    tag_69:\n        /* \"#utility.yul\":3298:3333   */\n    tag_68:\n        /* \"#utility.yul\":3355:3356   */\n      dup3\n        /* \"#utility.yul\":3352:3353   */\n      dup3\n        /* \"#utility.yul\":3348:3357   */\n      div\n        /* \"#utility.yul\":3343:3357   */\n      swap1\n      pop\n        /* \"#utility.yul\":3178:3363   */\n      swap3\n      swap2\n      pop\n      pop\n      jump\t// out\n\n    auxdata: 0xa264697066735822122002c1aa95bc873d91d618a686e60481e76c53bc778d2f22c8f8c5600896c2247564736f6c634300081a0033\n}\n",
				"bytecode": {
					"linkReferences": {},
					"object": "6080604052348015600e575f80fd5b5061030f8061001c5f395ff3fe60806040526004361061001d575f3560e01c806369b08d7d14610021575b5f80fd5b61003b6004803603810190610036919061018d565b61003d565b005b5f60023461004b9190610201565b1461008b576040517f08c379a00000000000000000000000000000000000000000000000000000000081526004016100829061028b565b60405180910390fd5b8173ffffffffffffffffffffffffffffffffffffffff166108fc6002346100b291906102a9565b90811502906040515f60405180830381858888f193505050501580156100da573d5f803e3d5ffd5b508073ffffffffffffffffffffffffffffffffffffffff166108fc60023461010291906102a9565b90811502906040515f60405180830381858888f1935050505015801561012a573d5f803e3d5ffd5b505050565b5f80fd5b5f73ffffffffffffffffffffffffffffffffffffffff82169050919050565b5f61015c82610133565b9050919050565b61016c81610152565b8114610176575f80fd5b50565b5f8135905061018781610163565b92915050565b5f80604083850312156101a3576101a261012f565b5b5f6101b085828601610179565b92505060206101c185828601610179565b9150509250929050565b5f819050919050565b7f4e487b71000000000000000000000000000000000000000000000000000000005f52601260045260245ffd5b5f61020b826101cb565b9150610216836101cb565b925082610226576102256101d4565b5b828206905092915050565b5f82825260208201905092915050565b7f4576656e2076616c75652072657175697265642e0000000000000000000000005f82015250565b5f610275601483610231565b915061028082610241565b602082019050919050565b5f6020820190508181035f8301526102a281610269565b9050919050565b5f6102b3826101cb565b91506102be836101cb565b9250826102ce576102cd6101d4565b5b82820490509291505056fea264697066735822122002c1aa95bc873d91d618a686e60481e76c53bc778d2f22c8f8c5600896c2247564736f6c634300081a0033",
					"opcodes": "PUSH1 0x80 PUSH1 0x40 MSTORE CALLVALUE DUP1 ISZERO PUSH1 0xE JUMPI PUSH0 DUP1 REVERT JUMPDEST POP PUSH2 0x30F DUP1 PUSH2 0x1C PUSH0 CODECOPY PUSH0 RETURN INVALID PUSH1 0x80 PUSH1 0x40 MSTORE PUSH1 0x4 CALLDATASIZE LT PUSH2 0x1D JUMPI PUSH0 CALLDATALOAD PUSH1 0xE0 SHR DUP1 PUSH4 0x69B08D7D EQ PUSH2 0x21 JUMPI JUMPDEST PUSH0 DUP1 REVERT JUMPDEST PUSH2 0x3B PUSH1 0x4 DUP1 CALLDATASIZE SUB DUP2 ADD SWAP1 PUSH2 0x36 SWAP2 SWAP1 PUSH2 0x18D JUMP JUMPDEST PUSH2 0x3D JUMP JUMPDEST STOP JUMPDEST PUSH0 PUSH1 0x2 CALLVALUE PUSH2 0x4B SWAP2 SWAP1 PUSH2 0x201 JUMP JUMPDEST EQ PUSH2 0x8B JUMPI PUSH1 0x40 MLOAD PUSH32 0x8C379A000000000000000000000000000000000000000000000000000000000 DUP2 MSTORE PUSH1 0x4 ADD PUSH2 0x82 SWAP1 PUSH2 0x28B JUMP JUMPDEST PUSH1 0x40 MLOAD DUP1 SWAP2 SUB SWAP1 REVERT JUMPDEST DUP2 PUSH20 0xFFFFFFFFFFFFFFFFFFFFFFFFFFFFFFFFFFFFFFFF AND PUSH2 0x8FC PUSH1 0x2 CALLVALUE PUSH2 0xB2 SWAP2 SWAP1 PUSH2 0x2A9 JUMP JUMPDEST SWAP1 DUP2 ISZERO MUL SWAP1 PUSH1 0x40 MLOAD PUSH0 PUSH1 0x40 MLOAD DUP1 DUP4 SUB DUP2 DUP6 DUP9 DUP9 CALL SWAP4 POP POP POP POP ISZERO DUP1 ISZERO PUSH2 0xDA JUMPI RETURNDATASIZE PUSH0 DUP1 RETURNDATACOPY RETURNDATASIZE PUSH0 REVERT JUMPDEST POP DUP1 PUSH20 0xFFFFFFFFFFFFFFFFFFFFFFFFFFFFFFFFFFFFFFFF AND PUSH2 0x8FC PUSH1 0x2 CALLVALUE PUSH2 0x102 SWAP2 SWAP1 PUSH2 0x2A9 JUMP JUMPDEST SWAP1 DUP2 ISZERO MUL SWAP1 PUSH1 0x40 MLOAD PUSH0 PUSH1 0x40 MLOAD DUP1 DUP4 SUB DUP2 DUP6 DUP9 DUP9 CALL SWAP4 POP POP POP POP ISZERO DUP1 ISZERO PUSH2 0x12A JUMPI RETURNDATASIZE PUSH0 DUP1 RETURNDATACOPY RETURNDATASIZE PUSH0 REVERT JUMPDEST POP POP POP JUMP JUMPDEST PUSH0 DUP1 REVERT JUMPDEST PUSH0 PUSH20 0xFFFFFFFFFFFFFFFFFFFFFFFFFFFFFFFFFFFFFFFF DUP3 AND SWAP1 POP SWAP2 SWAP1 POP JUMP JUMPDEST PUSH0 PUSH2 0x15C DUP3 PUSH2 0x133 JUMP JUMPDEST SWAP1 POP SWAP2 SWAP1 POP JUMP JUMPDEST PUSH2 0x16C DUP2 PUSH2 0x152 JUMP JUMPDEST DUP2 EQ PUSH2 0x176 JUMPI PUSH0 DUP1 REVERT JUMPDEST POP JUMP JUMPDEST PUSH0 DUP2 CALLDATALOAD SWAP1 POP PUSH2 0x187 DUP2 PUSH2 0x163 JUMP JUMPDEST SWAP3 SWAP2 POP POP JUMP JUMPDEST PUSH0 DUP1 PUSH1 0x40 DUP4 DUP6 SUB SLT ISZERO PUSH2 0x1A3 JUMPI PUSH2 0x1A2 PUSH2 0x12F JUMP JUMPDEST JUMPDEST PUSH0 PUSH2 0x1B0 DUP6 DUP3 DUP7 ADD PUSH2 0x179 JUMP JUMPDEST SWAP3 POP POP PUSH1 0x20 PUSH2 0x1C1 DUP6 DUP3 DUP7 ADD PUSH2 0x179 JUMP JUMPDEST SWAP2 POP POP SWAP3 POP SWAP3 SWAP1 POP JUMP JUMPDEST PUSH0 DUP2 SWAP1 POP SWAP2 SWAP1 POP JUMP JUMPDEST PUSH32 0x4E487B7100000000000000000000000000000000000000000000000000000000 PUSH0 MSTORE PUSH1 0x12 PUSH1 0x4 MSTORE PUSH1 0x24 PUSH0 REVERT JUMPDEST PUSH0 PUSH2 0x20B DUP3 PUSH2 0x1CB JUMP JUMPDEST SWAP2 POP PUSH2 0x216 DUP4 PUSH2 0x1CB JUMP JUMPDEST SWAP3 POP DUP3 PUSH2 0x226 JUMPI PUSH2 0x225 PUSH2 0x1D4 JUMP JUMPDEST JUMPDEST DUP3 DUP3 MOD SWAP1 POP SWAP3 SWAP2 POP POP JUMP JUMPDEST PUSH0 DUP3 DUP3 MSTORE PUSH1 0x20 DUP3 ADD SWAP1 POP SWAP3 SWAP2 POP POP JUMP JUMPDEST PUSH32 0x4576656E2076616C75652072657175697265642E000000000000000000000000 PUSH0 DUP3 ADD MSTORE POP JUMP JUMPDEST PUSH0 PUSH2 0x275 PUSH1 0x14 DUP4 PUSH2 0x231 JUMP JUMPDEST SWAP2 POP PUSH2 0x280 DUP3 PUSH2 0x241 JUMP JUMPDEST PUSH1 0x20 DUP3 ADD SWAP1 POP SWAP2 SWAP1 POP JUMP JUMPDEST PUSH0 PUSH1 0x20 DUP3 ADD SWAP1 POP DUP2 DUP2 SUB PUSH0 DUP4 ADD MSTORE PUSH2 0x2A2 DUP2 PUSH2 0x269 JUMP JUMPDEST SWAP1 POP SWAP2 SWAP1 POP JUMP JUMPDEST PUSH0 PUSH2 0x2B3 DUP3 PUSH2 0x1CB JUMP JUMPDEST SWAP2 POP PUSH2 0x2BE DUP4 PUSH2 0x1CB JUMP JUMPDEST SWAP3 POP DUP3 PUSH2 0x2CE JUMPI PUSH2 0x2CD PUSH2 0x1D4 JUMP JUMPDEST JUMPDEST DUP3 DUP3 DIV SWAP1 POP SWAP3 SWAP2 POP POP JUMP INVALID LOG2 PUSH5 0x6970667358 0x22 SLT KECCAK256 MUL 0xC1 0xAA SWAP6 0xBC DUP8 RETURNDATASIZE SWAP2 0xD6 XOR 0xA6 DUP7 0xE6 DIV DUP2 0xE7 PUSH13 0x53BC778D2F22C8F8C5600896C2 0x24 PUSH22 0x64736F6C634300081A00330000000000000000000000 "
				},
				"gasEstimates": {
					"creation": {
						"codeDepositCost": "156600",
						"executionCost": "200",
						"totalCost": "156800"
					},
					"external": {
						"splitEther(address,address)": "infinite"
					}
				},
				"methodIdentifiers": {
					"splitEther(address,address)": "69b08d7d"
				}
			},
			"storageLayout": {
				"storage": [],
				"types": null
			},
			"userdoc": {
				"kind": "user",
				"methods": {},
				"version": 1
			}
		}
	}
}