{
	"level0/task2/ChildContract.sol": {
		"ChildContract": {
			"abi": [
				{
					"inputs": [],
					"name": "funcExternal",
					"outputs": [],
					"stateMutability": "nonpayable",
					"type": "function"
				},
				{
					"inputs": [],
					"name": "funcPublic",
					"outputs": [],
					"stateMutability": "nonpayable",
					"type": "function"
				}
			],
			"devdoc": {
				"kind": "dev",
				"methods": {},
				"version": 1
			},
			"evm": {
				"assembly": "    /* \"level0/task2/ChildContract.sol\":95:379  contract ChildContract is MainContract {... */\n  mstore(0x40, 0x80)\n  callvalue\n  dup1\n  iszero\n  tag_1\n  jumpi\n  0x00\n  dup1\n  revert\ntag_1:\n  pop\n  dataSize(sub_0)\n  dup1\n  dataOffset(sub_0)\n  0x00\n  codecopy\n  0x00\n  return\nstop\n\nsub_0: assembly {\n        /* \"level0/task2/ChildContract.sol\":95:379  contract ChildContract is MainContract {... */\n      mstore(0x40, 0x80)\n      callvalue\n      dup1\n      iszero\n      tag_1\n      jumpi\n      0x00\n      dup1\n      revert\n    tag_1:\n      pop\n      jumpi(tag_2, lt(calldatasize, 0x04))\n      shr(0xe0, calldataload(0x00))\n      dup1\n      0x1b89948e\n      eq\n      tag_3\n      jumpi\n      dup1\n      0x3e87d65a\n      eq\n      tag_4\n      jumpi\n    tag_2:\n      0x00\n      dup1\n      revert\n        /* \"level0/task2/MainContract.sol\":380:411  function funcPublic() public {} */\n    tag_3:\n      tag_5\n      tag_6\n      jump\t// in\n    tag_5:\n      stop\n        /* \"level0/task2/MainContract.sol\":339:374  function funcExternal() external {} */\n    tag_4:\n      tag_7\n      tag_8\n      jump\t// in\n    tag_7:\n      stop\n        /* \"level0/task2/MainContract.sol\":380:411  function funcPublic() public {} */\n    tag_6:\n      jump\t// out\n        /* \"level0/task2/MainContract.sol\":339:374  function funcExternal() external {} */\n    tag_8:\n      jump\t// out\n\n    auxdata: 0xa2646970667358221220809679ae44666fda67cf7deae5185a4b9d15d5ba02b63a46413284002a4b9df764736f6c634300081a0033\n}\n",
				"bytecode": {
					"linkReferences": {},
					"object": "6080604052348015600e575f80fd5b50607e80601a5f395ff3fe6080604052348015600e575f80fd5b50600436106030575f3560e01c80631b89948e1460345780633e87d65a14603c575b5f80fd5b603a6044565b005b60426046565b005b565b56fea2646970667358221220809679ae44666fda67cf7deae5185a4b9d15d5ba02b63a46413284002a4b9df764736f6c634300081a0033",
					"opcodes": "PUSH1 0x80 PUSH1 0x40 MSTORE CALLVALUE DUP1 ISZERO PUSH1 0xE JUMPI PUSH0 DUP1 REVERT JUMPDEST POP PUSH1 0x7E DUP1 PUSH1 0x1A PUSH0 CODECOPY PUSH0 RETURN INVALID PUSH1 0x80 PUSH1 0x40 MSTORE CALLVALUE DUP1 ISZERO PUSH1 0xE JUMPI PUSH0 DUP1 REVERT JUMPDEST POP PUSH1 0x4 CALLDATASIZE LT PUSH1 0x30 JUMPI PUSH0 CALLDATALOAD PUSH1 0xE0 SHR DUP1 PUSH4 0x1B89948E EQ PUSH1 0x34 JUMPI DUP1 PUSH4 0x3E87D65A EQ PUSH1 0x3C JUMPI JUMPDEST PUSH0 DUP1 REVERT JUMPDEST PUSH1 0x3A PUSH1 0x44 JUMP JUMPDEST STOP JUMPDEST PUSH1 0x42 PUSH1 0x46 JUMP JUMPDEST STOP JUMPDEST JUMP JUMPDEST JUMP INVALID LOG2 PUSH5 0x6970667358 0x22 SLT KECCAK256 DUP1 SWAP7 PUSH26 0xAE44666FDA67CF7DEAE5185A4B9D15D5BA02B63A46413284002A 0x4B SWAP14 0xF7 PUSH5 0x736F6C6343 STOP ADDMOD BYTE STOP CALLER "
				},
				"gasEstimates": {
					"creation": {
						"codeDepositCost": "25200",
						"executionCost": "73",
						"totalCost": "25273"
					},
					"external": {
						"funcExternal()": "143",
						"funcPublic()": "121"
					},
					"internal": {
						"funcChild()": "infinite"
					}
				},
				"methodIdentifiers": {
					"funcExternal()": "3e87d65a",
					"funcPublic()": "1b89948e"
				}
			},
			"storageLayout": {
				"storage": [
					{
						"astId": 19,
						"contract": "level0/task2/ChildContract.sol:ChildContract",
						"label": "varPrivate",
						"offset": 0,
						"slot": "0",
						"type": "t_uint256"
					},
					{
						"astId": 21,
						"contract": "level0/task2/ChildContract.sol:ChildContract",
						"label": "varInternal",
						"offset": 0,
						"slot": "1",
						"type": "t_uint256"
					},
					{
						"astId": 23,
						"contract": "level0/task2/ChildContract.sol:ChildContract",
						"label": "varPublic",
						"offset": 0,
						"slot": "2",
						"type": "t_uint256"
					}
				],
				"types": {
					"t_uint256": {
						"encoding": "inplace",
						"label": "uint256",
						"numberOfBytes": "32"
					}
				}
			},
			"userdoc": {
				"kind": "user",
				"methods": {},
				"version": 1
			}
		}
	}
}