{
	"level0/task2/Caller.sol": {
		"Caller": {
			"abi": [
				{
					"inputs": [],
					"stateMutability": "payable",
					"type": "constructor"
				},
				{
					"inputs": [],
					"name": "tryCall",
					"outputs": [],
					"stateMutability": "nonpayable",
					"type": "function"
				},
				{
					"inputs": [],
					"name": "trySend",
					"outputs": [],
					"stateMutability": "nonpayable",
					"type": "function"
				},
				{
					"inputs": [],
					"name": "tryTransfer",
					"outputs": [],
					"stateMutability": "nonpayable",
					"type": "function"
				}
			],
			"devdoc": {
				"kind": "dev",
				"methods": {},
				"version": 1
			},
			"evm": {
				"assembly": "    /* \"level0/task2/Caller.sol\":255:1128  contract Caller {... */\n  mstore(0x40, 0x80)\n    /* \"level0/task2/Caller.sol\":454:466  new Callee() */\n  mload(0x40)\n  tag_3\n  swap1\n  tag_4\n  jump\t// in\ntag_3:\n  mload(0x40)\n  dup1\n  swap2\n  sub\n  swap1\n  0x00\n  create\n  dup1\n  iszero\n  dup1\n  iszero\n  tag_5\n  jumpi\n  returndatasize\n  0x00\n  dup1\n  returndatacopy\n  revert(0x00, returndatasize)\ntag_5:\n  pop\n    /* \"level0/task2/Caller.sol\":429:435  callee */\n  0x00\n  dup1\n    /* \"level0/task2/Caller.sol\":429:468  callee = payable(address(new Callee())) */\n  0x0100\n  exp\n  dup2\n  sload\n  dup2\n  0xffffffffffffffffffffffffffffffffffffffff\n  mul\n  not\n  and\n  swap1\n  dup4\n  0xffffffffffffffffffffffffffffffffffffffff\n  and\n  mul\n  or\n  swap1\n  sstore\n  pop\n    /* \"level0/task2/Caller.sol\":255:1128  contract Caller {... */\n  jump(tag_6)\ntag_4:\n  dataSize(sub_1)\n  dup1\n  dataOffset(sub_1)\n  dup4\n  codecopy\n  add\n  swap1\n  jump\t// out\ntag_6:\n  dataSize(sub_0)\n  dup1\n  dataOffset(sub_0)\n  0x00\n  codecopy\n  0x00\n  return\nstop\n\nsub_0: assembly {\n        /* \"level0/task2/Caller.sol\":255:1128  contract Caller {... */\n      mstore(0x40, 0x80)\n      callvalue\n      dup1\n      iszero\n      tag_1\n      jumpi\n      0x00\n      dup1\n      revert\n    tag_1:\n      pop\n      jumpi(tag_2, lt(calldatasize, 0x04))\n      shr(0xe0, calldataload(0x00))\n      dup1\n      0x118dfb0e\n      eq\n      tag_3\n      jumpi\n      dup1\n      0x77f6b358\n      eq\n      tag_4\n      jumpi\n      dup1\n      0xe0ca0cc1\n      eq\n      tag_5\n      jumpi\n    tag_2:\n      0x00\n      dup1\n      revert\n        /* \"level0/task2/Caller.sol\":966:1125  function tryCall() external {... */\n    tag_3:\n      tag_6\n      tag_7\n      jump\t// in\n    tag_6:\n      stop\n        /* \"level0/task2/Caller.sol\":574:643  function tryTransfer() external {... */\n    tag_4:\n      tag_8\n      tag_9\n      jump\t// in\n    tag_8:\n      stop\n        /* \"level0/task2/Caller.sol\":741:868  function trySend() external {... */\n    tag_5:\n      tag_10\n      tag_11\n      jump\t// in\n    tag_10:\n      stop\n        /* \"level0/task2/Caller.sol\":966:1125  function tryCall() external {... */\n    tag_7:\n        /* \"level0/task2/Caller.sol\":1006:1018  bool success */\n      0x00\n        /* \"level0/task2/Caller.sol\":1020:1037  bytes memory data */\n      dup1\n        /* \"level0/task2/Caller.sol\":1041:1047  callee */\n      0x00\n      dup1\n      sload\n      swap1\n      0x0100\n      exp\n      swap1\n      div\n      0xffffffffffffffffffffffffffffffffffffffff\n      and\n        /* \"level0/task2/Caller.sol\":1041:1052  callee.call */\n      0xffffffffffffffffffffffffffffffffffffffff\n      and\n        /* \"level0/task2/Caller.sol\":1060:1061  1 */\n      0x01\n        /* \"level0/task2/Caller.sol\":1041:1066  callee.call{value: 1}(\"\") */\n      mload(0x40)\n      tag_13\n      swap1\n      tag_14\n      jump\t// in\n    tag_13:\n      0x00\n      mload(0x40)\n      dup1\n      dup4\n      sub\n      dup2\n      dup6\n      dup8\n      gas\n      call\n      swap3\n      pop\n      pop\n      pop\n      returndatasize\n      dup1\n      0x00\n      dup2\n      eq\n      tag_17\n      jumpi\n      mload(0x40)\n      swap2\n      pop\n      and(add(returndatasize, 0x3f), not(0x1f))\n      dup3\n      add\n      0x40\n      mstore\n      returndatasize\n      dup3\n      mstore\n      returndatasize\n      0x00\n      0x20\n      dup5\n      add\n      returndatacopy\n      jump(tag_16)\n    tag_17:\n      0x60\n      swap2\n      pop\n    tag_16:\n      pop\n        /* \"level0/task2/Caller.sol\":1005:1066  (bool success, bytes memory data) = callee.call{value: 1}(\"\") */\n      swap2\n      pop\n      swap2\n      pop\n        /* \"level0/task2/Caller.sol\":1085:1092  success */\n      dup2\n        /* \"level0/task2/Caller.sol\":1077:1117  require(success, \"Failed to send Ether\") */\n      tag_18\n      jumpi\n      mload(0x40)\n      0x08c379a000000000000000000000000000000000000000000000000000000000\n      dup2\n      mstore\n      0x04\n      add\n      tag_19\n      swap1\n      tag_20\n      jump\t// in\n    tag_19:\n      mload(0x40)\n      dup1\n      swap2\n      sub\n      swap1\n      revert\n    tag_18:\n        /* \"level0/task2/Caller.sol\":994:1125  {... */\n      pop\n      pop\n        /* \"level0/task2/Caller.sol\":966:1125  function tryCall() external {... */\n      jump\t// out\n        /* \"level0/task2/Caller.sol\":574:643  function tryTransfer() external {... */\n    tag_9:\n        /* \"level0/task2/Caller.sol\":617:623  callee */\n      0x00\n      dup1\n      sload\n      swap1\n      0x0100\n      exp\n      swap1\n      div\n      0xffffffffffffffffffffffffffffffffffffffff\n      and\n        /* \"level0/task2/Caller.sol\":617:632  callee.transfer */\n      0xffffffffffffffffffffffffffffffffffffffff\n      and\n        /* \"level0/task2/Caller.sol\":617:635  callee.transfer(1) */\n      0x08fc\n        /* \"level0/task2/Caller.sol\":633:634  1 */\n      0x01\n        /* \"level0/task2/Caller.sol\":617:635  callee.transfer(1) */\n      swap1\n      dup2\n      iszero\n      mul\n      swap1\n      mload(0x40)\n      0x00\n      mload(0x40)\n      dup1\n      dup4\n      sub\n      dup2\n      dup6\n      dup9\n      dup9\n      call\n      swap4\n      pop\n      pop\n      pop\n      pop\n      iszero\n      dup1\n      iszero\n      tag_23\n      jumpi\n      returndatasize\n      0x00\n      dup1\n      returndatacopy\n      revert(0x00, returndatasize)\n    tag_23:\n      pop\n        /* \"level0/task2/Caller.sol\":574:643  function tryTransfer() external {... */\n      jump\t// out\n        /* \"level0/task2/Caller.sol\":741:868  function trySend() external {... */\n    tag_11:\n        /* \"level0/task2/Caller.sol\":780:792  bool success */\n      0x00\n        /* \"level0/task2/Caller.sol\":795:801  callee */\n      dup1\n      0x00\n      swap1\n      sload\n      swap1\n      0x0100\n      exp\n      swap1\n      div\n      0xffffffffffffffffffffffffffffffffffffffff\n      and\n        /* \"level0/task2/Caller.sol\":795:806  callee.send */\n      0xffffffffffffffffffffffffffffffffffffffff\n      and\n        /* \"level0/task2/Caller.sol\":795:809  callee.send(1) */\n      0x08fc\n        /* \"level0/task2/Caller.sol\":807:808  1 */\n      0x01\n        /* \"level0/task2/Caller.sol\":795:809  callee.send(1) */\n      swap1\n      dup2\n      iszero\n      mul\n      swap1\n      mload(0x40)\n      0x00\n      mload(0x40)\n      dup1\n      dup4\n      sub\n      dup2\n      dup6\n      dup9\n      dup9\n      call\n      swap4\n      pop\n      pop\n      pop\n      pop\n        /* \"level0/task2/Caller.sol\":780:809  bool success = callee.send(1) */\n      swap1\n      pop\n        /* \"level0/task2/Caller.sol\":828:835  success */\n      dup1\n        /* \"level0/task2/Caller.sol\":820:860  require(success, \"Failed to send Ether\") */\n      tag_26\n      jumpi\n      mload(0x40)\n      0x08c379a000000000000000000000000000000000000000000000000000000000\n      dup2\n      mstore\n      0x04\n      add\n      tag_27\n      swap1\n      tag_20\n      jump\t// in\n    tag_27:\n      mload(0x40)\n      dup1\n      swap2\n      sub\n      swap1\n      revert\n    tag_26:\n        /* \"level0/task2/Caller.sol\":769:868  {... */\n      pop\n        /* \"level0/task2/Caller.sol\":741:868  function trySend() external {... */\n      jump\t// out\n        /* \"#utility.yul\":7:154   */\n    tag_28:\n        /* \"#utility.yul\":108:119   */\n      0x00\n        /* \"#utility.yul\":145:148   */\n      dup2\n        /* \"#utility.yul\":130:148   */\n      swap1\n      pop\n        /* \"#utility.yul\":7:154   */\n      swap3\n      swap2\n      pop\n      pop\n      jump\t// out\n        /* \"#utility.yul\":160:274   */\n    tag_29:\n      pop\n      jump\t// out\n        /* \"#utility.yul\":280:678   */\n    tag_30:\n        /* \"#utility.yul\":439:442   */\n      0x00\n        /* \"#utility.yul\":460:543   */\n      tag_38\n        /* \"#utility.yul\":541:542   */\n      0x00\n        /* \"#utility.yul\":536:539   */\n      dup4\n        /* \"#utility.yul\":460:543   */\n      tag_28\n      jump\t// in\n    tag_38:\n        /* \"#utility.yul\":453:543   */\n      swap2\n      pop\n        /* \"#utility.yul\":552:645   */\n      tag_39\n        /* \"#utility.yul\":641:644   */\n      dup3\n        /* \"#utility.yul\":552:645   */\n      tag_29\n      jump\t// in\n    tag_39:\n        /* \"#utility.yul\":670:671   */\n      0x00\n        /* \"#utility.yul\":665:668   */\n      dup3\n        /* \"#utility.yul\":661:672   */\n      add\n        /* \"#utility.yul\":654:672   */\n      swap1\n      pop\n        /* \"#utility.yul\":280:678   */\n      swap2\n      swap1\n      pop\n      jump\t// out\n        /* \"#utility.yul\":684:1063   */\n    tag_14:\n        /* \"#utility.yul\":868:871   */\n      0x00\n        /* \"#utility.yul\":890:1037   */\n      tag_41\n        /* \"#utility.yul\":1033:1036   */\n      dup3\n        /* \"#utility.yul\":890:1037   */\n      tag_30\n      jump\t// in\n    tag_41:\n        /* \"#utility.yul\":883:1037   */\n      swap2\n      pop\n        /* \"#utility.yul\":1054:1057   */\n      dup2\n        /* \"#utility.yul\":1047:1057   */\n      swap1\n      pop\n        /* \"#utility.yul\":684:1063   */\n      swap2\n      swap1\n      pop\n      jump\t// out\n        /* \"#utility.yul\":1069:1238   */\n    tag_31:\n        /* \"#utility.yul\":1153:1164   */\n      0x00\n        /* \"#utility.yul\":1187:1193   */\n      dup3\n        /* \"#utility.yul\":1182:1185   */\n      dup3\n        /* \"#utility.yul\":1175:1194   */\n      mstore\n        /* \"#utility.yul\":1227:1231   */\n      0x20\n        /* \"#utility.yul\":1222:1225   */\n      dup3\n        /* \"#utility.yul\":1218:1232   */\n      add\n        /* \"#utility.yul\":1203:1232   */\n      swap1\n      pop\n        /* \"#utility.yul\":1069:1238   */\n      swap3\n      swap2\n      pop\n      pop\n      jump\t// out\n        /* \"#utility.yul\":1244:1414   */\n    tag_32:\n        /* \"#utility.yul\":1384:1406   */\n      0x4661696c656420746f2073656e64204574686572000000000000000000000000\n        /* \"#utility.yul\":1380:1381   */\n      0x00\n        /* \"#utility.yul\":1372:1378   */\n      dup3\n        /* \"#utility.yul\":1368:1382   */\n      add\n        /* \"#utility.yul\":1361:1407   */\n      mstore\n        /* \"#utility.yul\":1244:1414   */\n      pop\n      jump\t// out\n        /* \"#utility.yul\":1420:1786   */\n    tag_33:\n        /* \"#utility.yul\":1562:1565   */\n      0x00\n        /* \"#utility.yul\":1583:1650   */\n      tag_45\n        /* \"#utility.yul\":1647:1649   */\n      0x14\n        /* \"#utility.yul\":1642:1645   */\n      dup4\n        /* \"#utility.yul\":1583:1650   */\n      tag_31\n      jump\t// in\n    tag_45:\n        /* \"#utility.yul\":1576:1650   */\n      swap2\n      pop\n        /* \"#utility.yul\":1659:1752   */\n      tag_46\n        /* \"#utility.yul\":1748:1751   */\n      dup3\n        /* \"#utility.yul\":1659:1752   */\n      tag_32\n      jump\t// in\n    tag_46:\n        /* \"#utility.yul\":1777:1779   */\n      0x20\n        /* \"#utility.yul\":1772:1775   */\n      dup3\n        /* \"#utility.yul\":1768:1780   */\n      add\n        /* \"#utility.yul\":1761:1780   */\n      swap1\n      pop\n        /* \"#utility.yul\":1420:1786   */\n      swap2\n      swap1\n      pop\n      jump\t// out\n        /* \"#utility.yul\":1792:2211   */\n    tag_20:\n        /* \"#utility.yul\":1958:1962   */\n      0x00\n        /* \"#utility.yul\":1996:1998   */\n      0x20\n        /* \"#utility.yul\":1985:1994   */\n      dup3\n        /* \"#utility.yul\":1981:1999   */\n      add\n        /* \"#utility.yul\":1973:1999   */\n      swap1\n      pop\n        /* \"#utility.yul\":2045:2054   */\n      dup2\n        /* \"#utility.yul\":2039:2043   */\n      dup2\n        /* \"#utility.yul\":2035:2055   */\n      sub\n        /* \"#utility.yul\":2031:2032   */\n      0x00\n        /* \"#utility.yul\":2020:2029   */\n      dup4\n        /* \"#utility.yul\":2016:2033   */\n      add\n        /* \"#utility.yul\":2009:2056   */\n      mstore\n        /* \"#utility.yul\":2073:2204   */\n      tag_48\n        /* \"#utility.yul\":2199:2203   */\n      dup2\n        /* \"#utility.yul\":2073:2204   */\n      tag_33\n      jump\t// in\n    tag_48:\n        /* \"#utility.yul\":2065:2204   */\n      swap1\n      pop\n        /* \"#utility.yul\":1792:2211   */\n      swap2\n      swap1\n      pop\n      jump\t// out\n\n    auxdata: 0xa26469706673582212207edbb247eb968d623400bacf030873ed012bfc5e898cc5ff21448400f810062964736f6c634300081a0033\n}\n\nsub_1: assembly {\n        /* \"level0/task2/Caller.sol\":138:156  contract Callee {} */\n      mstore(0x40, 0x80)\n      callvalue\n      dup1\n      iszero\n      tag_1\n      jumpi\n      0x00\n      dup1\n      revert\n    tag_1:\n      pop\n      dataSize(sub_0)\n      dup1\n      dataOffset(sub_0)\n      0x00\n      codecopy\n      0x00\n      return\n    stop\n\n    sub_0: assembly {\n            /* \"level0/task2/Caller.sol\":138:156  contract Callee {} */\n          mstore(0x40, 0x80)\n          0x00\n          dup1\n          revert\n\n        auxdata: 0xa264697066735822122011da984afb7fafb855469b58cd22c913efba456e603665a106506d92afe3f23f64736f6c634300081a0033\n    }\n}\n",
				"bytecode": {
					"linkReferences": {},
					"object": "6080604052604051600e906069565b604051809103905ff0801580156026573d5f803e3d5ffd5b505f806101000a81548173ffffffffffffffffffffffffffffffffffffffff021916908373ffffffffffffffffffffffffffffffffffffffff1602179055506075565b6058806103a183390190565b61031f806100825f395ff3fe608060405234801561000f575f80fd5b506004361061003f575f3560e01c8063118dfb0e1461004357806377f6b3581461004d578063e0ca0cc114610057575b5f80fd5b61004b610061565b005b61005561012f565b005b61005f610195565b005b5f805f8054906101000a900473ffffffffffffffffffffffffffffffffffffffff1673ffffffffffffffffffffffffffffffffffffffff1660016040516100a79061025d565b5f6040518083038185875af1925050503d805f81146100e1576040519150601f19603f3d011682016040523d82523d5f602084013e6100e6565b606091505b50915091508161012b576040517f08c379a0000000000000000000000000000000000000000000000000000000008152600401610122906102cb565b60405180910390fd5b5050565b5f8054906101000a900473ffffffffffffffffffffffffffffffffffffffff1673ffffffffffffffffffffffffffffffffffffffff166108fc600190811502906040515f60405180830381858888f19350505050158015610192573d5f803e3d5ffd5b50565b5f805f9054906101000a900473ffffffffffffffffffffffffffffffffffffffff1673ffffffffffffffffffffffffffffffffffffffff166108fc600190811502906040515f60405180830381858888f1935050505090508061022d576040517f08c379a0000000000000000000000000000000000000000000000000000000008152600401610224906102cb565b60405180910390fd5b50565b5f81905092915050565b50565b5f6102485f83610230565b91506102538261023a565b5f82019050919050565b5f6102678261023d565b9150819050919050565b5f82825260208201905092915050565b7f4661696c656420746f2073656e642045746865720000000000000000000000005f82015250565b5f6102b5601483610271565b91506102c082610281565b602082019050919050565b5f6020820190508181035f8301526102e2816102a9565b905091905056fea26469706673582212207edbb247eb968d623400bacf030873ed012bfc5e898cc5ff21448400f810062964736f6c634300081a00336080604052348015600e575f80fd5b50603e80601a5f395ff3fe60806040525f80fdfea264697066735822122011da984afb7fafb855469b58cd22c913efba456e603665a106506d92afe3f23f64736f6c634300081a0033",
					"opcodes": "PUSH1 0x80 PUSH1 0x40 MSTORE PUSH1 0x40 MLOAD PUSH1 0xE SWAP1 PUSH1 0x69 JUMP JUMPDEST PUSH1 0x40 MLOAD DUP1 SWAP2 SUB SWAP1 PUSH0 CREATE DUP1 ISZERO DUP1 ISZERO PUSH1 0x26 JUMPI RETURNDATASIZE PUSH0 DUP1 RETURNDATACOPY RETURNDATASIZE PUSH0 REVERT JUMPDEST POP PUSH0 DUP1 PUSH2 0x100 EXP DUP2 SLOAD DUP2 PUSH20 0xFFFFFFFFFFFFFFFFFFFFFFFFFFFFFFFFFFFFFFFF MUL NOT AND SWAP1 DUP4 PUSH20 0xFFFFFFFFFFFFFFFFFFFFFFFFFFFFFFFFFFFFFFFF AND MUL OR SWAP1 SSTORE POP PUSH1 0x75 JUMP JUMPDEST PUSH1 0x58 DUP1 PUSH2 0x3A1 DUP4 CODECOPY ADD SWAP1 JUMP JUMPDEST PUSH2 0x31F DUP1 PUSH2 0x82 PUSH0 CODECOPY PUSH0 RETURN INVALID PUSH1 0x80 PUSH1 0x40 MSTORE CALLVALUE DUP1 ISZERO PUSH2 0xF JUMPI PUSH0 DUP1 REVERT JUMPDEST POP PUSH1 0x4 CALLDATASIZE LT PUSH2 0x3F JUMPI PUSH0 CALLDATALOAD PUSH1 0xE0 SHR DUP1 PUSH4 0x118DFB0E EQ PUSH2 0x43 JUMPI DUP1 PUSH4 0x77F6B358 EQ PUSH2 0x4D JUMPI DUP1 PUSH4 0xE0CA0CC1 EQ PUSH2 0x57 JUMPI JUMPDEST PUSH0 DUP1 REVERT JUMPDEST PUSH2 0x4B PUSH2 0x61 JUMP JUMPDEST STOP JUMPDEST PUSH2 0x55 PUSH2 0x12F JUMP JUMPDEST STOP JUMPDEST PUSH2 0x5F PUSH2 0x195 JUMP JUMPDEST STOP JUMPDEST PUSH0 DUP1 PUSH0 DUP1 SLOAD SWAP1 PUSH2 0x100 EXP SWAP1 DIV PUSH20 0xFFFFFFFFFFFFFFFFFFFFFFFFFFFFFFFFFFFFFFFF AND PUSH20 0xFFFFFFFFFFFFFFFFFFFFFFFFFFFFFFFFFFFFFFFF AND PUSH1 0x1 PUSH1 0x40 MLOAD PUSH2 0xA7 SWAP1 PUSH2 0x25D JUMP JUMPDEST PUSH0 PUSH1 0x40 MLOAD DUP1 DUP4 SUB DUP2 DUP6 DUP8 GAS CALL SWAP3 POP POP POP RETURNDATASIZE DUP1 PUSH0 DUP2 EQ PUSH2 0xE1 JUMPI PUSH1 0x40 MLOAD SWAP2 POP PUSH1 0x1F NOT PUSH1 0x3F RETURNDATASIZE ADD AND DUP3 ADD PUSH1 0x40 MSTORE RETURNDATASIZE DUP3 MSTORE RETURNDATASIZE PUSH0 PUSH1 0x20 DUP5 ADD RETURNDATACOPY PUSH2 0xE6 JUMP JUMPDEST PUSH1 0x60 SWAP2 POP JUMPDEST POP SWAP2 POP SWAP2 POP DUP2 PUSH2 0x12B JUMPI PUSH1 0x40 MLOAD PUSH32 0x8C379A000000000000000000000000000000000000000000000000000000000 DUP2 MSTORE PUSH1 0x4 ADD PUSH2 0x122 SWAP1 PUSH2 0x2CB JUMP JUMPDEST PUSH1 0x40 MLOAD DUP1 SWAP2 SUB SWAP1 REVERT JUMPDEST POP POP JUMP JUMPDEST PUSH0 DUP1 SLOAD SWAP1 PUSH2 0x100 EXP SWAP1 DIV PUSH20 0xFFFFFFFFFFFFFFFFFFFFFFFFFFFFFFFFFFFFFFFF AND PUSH20 0xFFFFFFFFFFFFFFFFFFFFFFFFFFFFFFFFFFFFFFFF AND PUSH2 0x8FC PUSH1 0x1 SWAP1 DUP2 ISZERO MUL SWAP1 PUSH1 0x40 MLOAD PUSH0 PUSH1 0x40 MLOAD DUP1 DUP4 SUB DUP2 DUP6 DUP9 DUP9 CALL SWAP4 POP POP POP POP ISZERO DUP1 ISZERO PUSH2 0x192 JUMPI RETURNDATASIZE PUSH0 DUP1 RETURNDATACOPY RETURNDATASIZE PUSH0 REVERT JUMPDEST POP JUMP JUMPDEST PUSH0 DUP1 PUSH0 SWAP1 SLOAD SWAP1 PUSH2 0x100 EXP SWAP1 DIV PUSH20 0xFFFFFFFFFFFFFFFFFFFFFFFFFFFFFFFFFFFFFFFF AND PUSH20 0xFFFFFFFFFFFFFFFFFFFFFFFFFFFFFFFFFFFFFFFF AND PUSH2 0x8FC PUSH1 0x1 SWAP1 DUP2 ISZERO MUL SWAP1 PUSH1 0x40 MLOAD PUSH0 PUSH1 0x40 MLOAD DUP1 DUP4 SUB DUP2 DUP6 DUP9 DUP9 CALL SWAP4 POP POP POP POP SWAP1 POP DUP1 PUSH2 0x22D JUMPI PUSH1 0x40 MLOAD PUSH32 0x8C379A000000000000000000000000000000000000000000000000000000000 DUP2 MSTORE PUSH1 0x4 ADD PUSH2 0x224 SWAP1 PUSH2 0x2CB JUMP JUMPDEST PUSH1 0x40 MLOAD DUP1 SWAP2 SUB SWAP1 REVERT JUMPDEST POP JUMP JUMPDEST PUSH0 DUP2 SWAP1 POP SWAP3 SWAP2 POP POP JUMP JUMPDEST POP JUMP JUMPDEST PUSH0 PUSH2 0x248 PUSH0 DUP4 PUSH2 0x230 JUMP JUMPDEST SWAP2 POP PUSH2 0x253 DUP3 PUSH2 0x23A JUMP JUMPDEST PUSH0 DUP3 ADD SWAP1 POP SWAP2 SWAP1 POP JUMP JUMPDEST PUSH0 PUSH2 0x267 DUP3 PUSH2 0x23D JUMP JUMPDEST SWAP2 POP DUP2 SWAP1 POP SWAP2 SWAP1 POP JUMP JUMPDEST PUSH0 DUP3 DUP3 MSTORE PUSH1 0x20 DUP3 ADD SWAP1 POP SWAP3 SWAP2 POP POP JUMP JUMPDEST PUSH32 0x4661696C656420746F2073656E64204574686572000000000000000000000000 PUSH0 DUP3 ADD MSTORE POP JUMP JUMPDEST PUSH0 PUSH2 0x2B5 PUSH1 0x14 DUP4 PUSH2 0x271 JUMP JUMPDEST SWAP2 POP PUSH2 0x2C0 DUP3 PUSH2 0x281 JUMP JUMPDEST PUSH1 0x20 DUP3 ADD SWAP1 POP SWAP2 SWAP1 POP JUMP JUMPDEST PUSH0 PUSH1 0x20 DUP3 ADD SWAP1 POP DUP2 DUP2 SUB PUSH0 DUP4 ADD MSTORE PUSH2 0x2E2 DUP2 PUSH2 0x2A9 JUMP JUMPDEST SWAP1 POP SWAP2 SWAP1 POP JUMP INVALID LOG2 PUSH5 0x6970667358 0x22 SLT KECCAK256 PUSH31 0xDBB247EB968D623400BACF030873ED012BFC5E898CC5FF21448400F8100629 PUSH5 0x736F6C6343 STOP ADDMOD BYTE STOP CALLER PUSH1 0x80 PUSH1 0x40 MSTORE CALLVALUE DUP1 ISZERO PUSH1 0xE JUMPI PUSH0 DUP1 REVERT JUMPDEST POP PUSH1 0x3E DUP1 PUSH1 0x1A PUSH0 CODECOPY PUSH0 RETURN INVALID PUSH1 0x80 PUSH1 0x40 MSTORE PUSH0 DUP1 REVERT INVALID LOG2 PUSH5 0x6970667358 0x22 SLT KECCAK256 GT 0xDA SWAP9 BLOBBASEFEE 0xFB PUSH32 0xAFB855469B58CD22C913EFBA456E603665A106506D92AFE3F23F64736F6C6343 STOP ADDMOD BYTE STOP CALLER "
				},
				"gasEstimates": {
					"creation": {
						"codeDepositCost": "159800",
						"executionCost": "infinite",
						"totalCost": "infinite"
					},
					"external": {
						"tryCall()": "infinite",
						"trySend()": "infinite",
						"tryTransfer()": "infinite"
					}
				},
				"methodIdentifiers": {
					"tryCall()": "118dfb0e",
					"trySend()": "e0ca0cc1",
					"tryTransfer()": "77f6b358"
				}
			},
			"storageLayout": {
				"storage": [
					{
						"astId": 4,
						"contract": "level0/task2/Caller.sol:Caller",
						"label": "callee",
						"offset": 0,
						"slot": "0",
						"type": "t_address_payable"
					}
				],
				"types": {
					"t_address_payable": {
						"encoding": "inplace",
						"label": "address payable",
						"numberOfBytes": "20"
					}
				}
			},
			"userdoc": {
				"kind": "user",
				"methods": {},
				"version": 1
			}
		}
	}
}